:020000040C00EE
:100000000008001001020008492200084B220008E5
:100010004D2200084F220008512200080000000075
:100020000000000000000000000000005322000853
:100030005522000800000000572200089DB100086A
:10004000C1C500085D2200085F2200086122000887
:1000500063220008AD10000867220008692200082A
:100060006B220008000000000000000000000000FB
:100070006D220008000000006F22000871220008B5
:1000800073220008752200087722000879220008F0
:100090007B2200087D2200087F22000881220008C0
:1000A0008322000885220008872200088922000890
:1000B0008B2200088D2200088F2200089122000860
:1000C0009322000895220008972200089922000830
:1000D0009B2200089D2200089F220008A122000800
:1000E000A3220008A5220008A7220008A9220008D0
:1000F000AB220008AD220008AF220008B1220008A0
:1001000019050008A1250008B72200086D2900087C
:10011000BB220008BD220008BF220008C12200083F
:10012000C3220008C5220008C7220008C92200080F
:10013000CB220008CD220008CF220008D1220008DF
:10014000D3220008D5220008D7220008D9220008AF
:10015000DB220008DD220008DF220008E12200087F
:10016000000000000000000000000000000000008F
:10017000E3220008E5220008E7220008E92200083F
:10018000EB220008ED220008EF220008F12200080F
:10019000F3220008F5220008F7220008F9220008DF
:1001A000FB220008211D0008A11B000801230008F4
:1001B000032300080523000807230008092300087B
:1001C0000B2300080D2300080F230008112300084B
:1001D000132300081523000817230008000000005F
:1001E000192300081B2300081D230008899F00080D
:1001F0002123000800000000232300080000000065
:10020000DFF80CD0034880470348804700F017B858
:10021000000800109D230008C9D30008002A00F040
:100220000D804FEA920203680B60013A00F00680ED
:1002300000F1040001F10401FFF7F5BF7047144815
:100240001449154AFFF7EAFF14481549154AFFF704
:10025000E5FF15481549002900F00C804FEA91018F
:100260004FF000020260013900F0048000F1040048
:10027000FFF7F8BF0E480F4908600F488047DFF8C6
:100280003CD04FF000004FF00001DFF834F00000E8
:100290003069010C0000002050050000806E010C48
:1002A000000800100000000050050020D8090000E0
:1002B0000000000808ED00E0A1000108000800109F
:1002C0006D27000800BF7047F7B51F4604230D4691
:1002D00016468DF805308DF8040001242B4801A93D
:1002E0000CF067FE50B941F2883194FBF1F201FB4A
:1002F000124008B9002048E00134EFE700208DF8F3
:1003000005008DF804500124204801A90CF051FE8D
:1003100048B941F2883294FBF2F002FB1043002B03
:10032000E8D00134F0E70024B44217DA3A5D002542
:100330008DF805508DF804200125144801A90CF012
:1003400038FE48B941F2883095FBF0F300FB1351B9
:100350000029CFD00135F0E70134E5E70621FF227F
:100360008DF805108DF804200124084801A90CF02F
:1003700020FE48B941F2883394FBF3F003FB1041AF
:100380000029B7D00134F0E70120FEBD84660108E2
:1003900007B502AB03F8012D0122FFF795FF0EBD53
:1003A0002DE9F34105461F460420002388461646E2
:1003B000ADF806308DF805008DF80450012447484B
:1003C00001A90CF0F6FD50B941F2883094FBF0F22F
:1003D00000FB124109B900207DE00134EFE7002164
:1003E0008DF805108DF8048001243C4801A90CF01B
:1003F000E0FD48B941F2883094FBF0F100FB114375
:10040000002BE8D00134F0E7052245F001058DF816
:1004100005208DF804500124304801A90CF0C9FDD5
:1004200048B941F2883194FBF1F301FB1342002AF1
:10043000D1D00134F0E70024B4421CDA751EAC427E
:1004400001DA022000E00320FF218DF805008DF87D
:1004500004100125214801A90CF0ABFD48B941F277
:10046000883395FBF3F203FB12500028B3D001351B
:10047000F0E70134E0E70624FF238DF805408DF80E
:1004800004300124154801A90CF093FD48B941F24C
:10049000883194FBF1F301FB1342002A9BD0013415
:1004A000F0E70024B44215DA01250C480DF10601ED
:1004B0000CF072FD48B941F2883395FBF3F203FB6F
:1004C0001250002887D00135EFE7BDF806103955E6
:1004D0000134E7E7E0B240B2BDE8FC818466010880
:1004E00007B502AB002203F8012D0122FFF758FFE8
:1004F00008B19DF807000EBD064B586802224FF464
:1005000000418266C0F81811C36C43F02002C26437
:10051000704700BF84660108024B1A68501C1860BF
:10052000704700BF50050020034B10B51C681A68C7
:1005300001199142FBD810BD50050020014B1868ED
:10054000704700BF500500202DE9F04F97B00646D8
:100550001D4904A848220FF059FE0023019302937D
:100560000393EA464FF000085AF8040FA6F1040975
:1005700000270FF031FA044604A808EB000BBB4437
:1005800059F8040F0D460FF027FADBE900230FF0AE
:1005900077FA02460B46204629460FF0BFF8083787
:1005A0000FF028FD182FE4D108F11808B8F1480F12
:1005B000CAF80000D8D10199029A039B3160726099
:1005C000B36017B0BDE8F08FF05F01082DE9F04F80
:1005D0002A4D2B499DB0064648220AA80FF016FE68
:1005E0000FCD04AC0FC495E8030008AF84E8030006
:1005F000354602AC28680FF0EFF9F4E902230FF05A
:100600008BF80FF0F7FCBC4245F8040BF2D1002345
:10061000019302930393EA464FF000085AF8040F3F
:10062000A6F1040900270FF0D7F904460AA808EB41
:10063000000BBB4459F8040F0D460FF0CDF9DBE970
:1006400000230FF01DFA02460B46204629460FF004
:1006500065F808370FF0CEFC182FE4D108F1180820
:10066000B8F1480FCAF80000D8D10199029A039B4B
:1006700031607260B3601DB0BDE8F08F806001082A
:100680003860010813B5002204460A211820FFF73C
:100690007FFE0A20FFF748FF0A210F221820FFF7EC
:1006A00077FE0A20FFF740FF0322102101AB18203C
:1006B000FFF776FE9DF80400803807EE900AB8EE4A
:1006C000E70A10EE100A0FF087F900221B4B0FF01B
:1006D000D7F900221A4B0FF021F80FF08BFC9DF890
:1006E00005102060803900EE901AB8EEE01A11EE85
:1006F000100A0FF071F90022104B0FF0C1F900221F
:100700000F4B0FF00BF80FF075FC9DF806206060A2
:10071000803A01EE902AB8EEE12A12EE100A0FF0AC
:100720005BF90022054B0FF0ABF90022044B0EF0F1
:10073000F5FF0FF05FFCA0601CBD00BF0000703F24
:100740000000F03F38B56B210022D020FFF720FEDB
:100750006420FFF7E9FE6B210122D020FFF718FE8D
:10076000C820FFF7E1FE1A210122D020FFF710FE7A
:1007700001221921D020FFF70BFE1B21D020FFF70B
:10078000AFFE05461B2105F01F02D0204B4CFFF7A2
:10079000FFFD1B2105F0E702D020FFF7F9FD2378CC
:1007A00045EAC302D2B2D0201B21FFF7F1FDD020D1
:1007B0001C21FFF795FE05461C21D02005F01F02E5
:1007C000FFF7E6FD1C21D02005F0E702FFF7E0FD72
:1007D000607845EAC003DAB21C21D020FFF7D8FDCB
:1007E00038210022D020FFF7D3FD23210022D02082
:1007F000FFF7CEFD6A210222D020FFF7C9FD6A2152
:100800000022D020FFF7C4FD37210222D020FFF7BD
:10081000BFFD6420FFF788FE18200021FFF760FE6F
:10082000482802D1201DFFF72DFF23217922D02057
:10083000FFF7AEFD24215D22D020FFF7A9FD252181
:100840008C22D020FFF7A4FD26210222D020FFF722
:100850009FFD2721D722D020FFF79AFD28210C22C7
:10086000D020FFF795FD29210A22D020FFF790FD27
:100870000122D0206421FFF78BFDD0202A21812284
:10088000FFF786FD34210422D020FFF781FD3721B8
:100890000022D020FFF77CFD38211122D020FFF765
:1008A00077FD67218322D020FFF772FDD0206A21D7
:1008B0006422BDE83840FFF76BBD00BF540500203F
:1008C0002DE9F04F6B2189B08022D020FFF760FD29
:1008D0006420FFF729FE6B210122D020FFF758FD8D
:1008E0006C210022D020FFF753FDC820FFF71CFE2B
:1008F00038210022D020FFF74BFD23210022D020F9
:10090000FFF746FD6B210022D020FFF741FD0022BA
:10091000D0202421FFF73CFDD0206A210022FFF7E0
:1009200037FD6A210C22D020FFF732FD0F20FFF7A0
:10093000FBFD1A210122D020FFF72AFD19210022F8
:10094000D020FFF725FD1B210022D020FFF720FD3E
:100950001C210022D020FFF71BFD6A214022D0205D
:10096000FFF716FD23217822D020FFF711FD50203C
:10097000FFF7DAFD23210022D020FFF709FD7221C5
:1009800002ABD0200222FFF70BFD9DF808B09DF8C6
:100990000930002543EA0B200C21B0FBF1FBA846EF
:1009A000A9462E462F46AA462C465C4538D07421CF
:1009B0000C2202ABD020FFF7F3FC9DF808209DF835
:1009C00009109DF80B3041EA02209DF80A2009FA2F
:1009D00080F943EA02219DF80C009DF80D2008FAE9
:1009E00081F842EA00239DF80E109DF80F0005FAE9
:1009F00083F540EA01229DF811309DF810100AFAA3
:100A000082FA43EA01209DF812209DF81310013468
:100A100041EA022307FA80F706FA83F6A4B2C4E794
:100A200095FBF4F5002DCCBFA5F5804505F5804577
:100A30009AFBF4FA97FBF4F799FBF4F998FBF4F8B6
:100A400096FBF4F4042697FBF6F358429AFBF6F271
:100A500094FBF6F77C420112C2F1000A2612CAF397
:100A600007228DF80A108DF80B001321D0208DF885
:100A700008208DF80C608DF80D408DF809A0FFF767
:100A800087FC1421D0209DF80920FFF781FC152157
:100A9000D0209DF80A20FFF77BFC1621D0209DF87E
:100AA0000B20FFF775FC1721D0209DF80C20FFF7D5
:100AB0006FFC1821D0209DF80D20FFF769FC06215E
:100AC0000222D02002ABFFF76BFC9DF908209DF8B5
:100AD0000930082143EA0227D0200DEB010302224E
:100AE0000597FFF75DFC9DF908009DF8091002AB22
:100AF00041EA0026D0200A2102220696FFF750FC88
:100B00009DF908409DF80920002342EA042207923B
:100B10008DF804308DF805308DF8063005A850F8B2
:100B20002310C90702D501A801241C540133032B4B
:100B3000F4D1082498FBF4FE95FBF4F599FBF4FC42
:100B4000CEEB06069DF806309DF804909DF80580D2
:100B5000551BCCEB070746FA04F145FA04F0C7F33E
:100B600007221D438DF80A108DF80C00062147EA74
:100B7000090746EA0806D0208DF808208DF809708C
:100B80008DF80B608DF80D50FFF702FC07219DF8E2
:100B90000920D020FFF7FCFB21469DF80A20D02039
:100BA000FFF7F6FB09219DF80B20D020FFF7F0FBA3
:100BB0000A219DF80C20D020FFF7EAFBD0200B2162
:100BC0009DF80D20FFF7E4FB09B0BDE8F08F0000B1
:100BD0002DE9F0412DED028B1C218EB0F022D020AA
:100BE000FFF7D6FBE0221B21D020FFF7D1FBFA2034
:100BF000FFF79AFC0D21D020FFF772FC0E2106466C
:100C0000D020FFF76DFC0F210546D020FFF768FCD0
:100C100010210446D020FFF763FCC0F3011040EA26
:100C2000D601CAB207EE902AB8EE670AC5F3C70824
:100C300010EE100AC4F3C70706F01F0605F01F05E3
:100C400004F01F048DF800208DF801808DF80270EB
:100C50008DF803608DF804508DF805400EF0BCFE51
:100C600000228F4B0EF058FD00228E4B0FF032F811
:100C700002460B4680A1D1E900010CF07BFE80A367
:100C8000D3E900230EF0FCFE0FF0B4F900EE908AD9
:100C9000B8EE601A029011EE100A0EF09DFE0022CE
:100CA0007F4B0EF039FD00227E4B0FF013F8024609
:100CB0000B4671A1D1E900010CF05CFE70A3D3E9F1
:100CC00000230EF0DDFE0FF095F901EE907AB8EEFC
:100CD000612A039012EE100A0EF07EFE0022704B85
:100CE0000EF01AFD00226F4B0EF0F4FF02460B4689
:100CF00061A1D1E900010CF03DFE61A3D3E900231D
:100D00000EF0BEFE0FF076F902EE906AB8EE623A8F
:100D1000049013EE100A0EF05FFE0022604B0EF0FE
:100D2000FBFC02460B4658A1D1E900010CF022FE63
:100D300057A3D3E900230EF0A3FE0FF05BF903EEF7
:100D4000905AB8EE634A059014EE100A0EF044FE75
:100D50000022534B0EF0E0FC02460B464AA1D1E9BB
:100D600000010CF007FE4CA3D3E900230EF088FE2F
:100D70000FF040F904EE904AB8EE645A069015EE72
:100D8000100A0EF029FE0022454B0EF0C5FC02466B
:100D90000B463DA1D1E900010CF0ECFD3CA3D3E9E9
:100DA00000230EF06DFE0FF025F90DF104080790F9
:100DB00007AF00261DF8060008F1040805EE900AAA
:100DC0004346B8EE656A93ED008A76EE486A0136CE
:100DD00016EE900A0EF000FE0022334B0EF050FE8D
:100DE000044618EE100A0D460EF0F6FD02460B46BC
:100DF000204629460EF06EFF00222B4B0EF08EFC93
:100E00000FF0F8F8062E47F8040FD3D19DED087ABD
:100E1000F7EE007AB4EEE77AF1EE10FA25D59DED03
:100E2000090AB4EEE70AF1EE10FA1ED5DDED0A0A62
:100E3000F4EEE70AF1EE10FA17D59DED0B1AB4EEB9
:100E4000E71AF1EE10FA10D5DDED0C1AF4EEE71A00
:100E5000F1EE10FA09D59DED0D2AB4EEE72AF1EE78
:100E600010FA54BF0020012000E000200EB0BDECBD
:100E7000028BBDE8F08100BFA5A5A5A5A5A50540ED
:100E8000C3F5285C8FC2954023DBF97E6ABCF03F36
:100E9000000000000096A940000000000096A9C0D4
:100EA0000000F03F00003E4000005940AFF30080DA
:100EB000D020752108B5FFF713FB682801D07128F1
:100EC00016D1FFF785FE98B1FFF7FAFC4FF47A7060
:100ED000FFF72AFBFFF736FC064B1878012241B2D8
:100EE00000F01F0302FA03F04909034B43F8210005
:100EF00008BD00BF2866010800E100E0084B187833
:100F000003280CD8DFE800F002040608054A04E0D4
:100F1000054A02E0054A00E0054A06490A607047B2
:100F2000540500200000FA3B00007A3C0000FA3C27
:100F300000007A3DCC0600200A4B5878032810D8D0
:100F4000DFE800F00205080B4FF0625207E04FF0B7
:100F5000645204E04FF0665201E04FF068520249DB
:100F60000A60704754050020C8060020014B188A0B
:100F7000704700BF54050020314B70B593ED077AE0
:100F8000DFED307A27EE270A2DED048B2E4C80ED15
:100F9000000A94ED006A94ED021AD4ED016AD4EDD2
:100FA000030A66EE011A56EEA01A064631EEA12A91
:100FB00012EE100A0EF010FD0CF088FC02461046EE
:100FC00001F100411CA3D3E900230EF059FD0FF0FD
:100FD00011F87060D4ED028A94ED038A94ED009AC2
:100FE000D4ED019A68EE882A49EE292A32EEA23A17
:100FF00013EE100A0EF0F0FC69EEA93A59EE093A28
:1010000048EEE83A48EE083A044613EE900A0D46D8
:101010000EF0E2FC02460B46204629460CF0A8FCE6
:1010200005A3D3E900230EF02BFD0EF0E3FFB06023
:10103000BDEC048B70BD00BF00000020DCA54C405F
:1010400054050020E12E654200000020AFF300802F
:10105000034B1A6A0260596A41609B6A8360704759
:10106000540500200A4BDFED0B7A93ED057A27EE4D
:10107000270A80ED000AD3ED060A20EEA71A80EDBC
:10108000011AD3ED071A21EEA72A80ED022A704734
:1010900054050020E12E6542034BDA6A0260196BA9
:1010A00041605B6B8360704754050020964B187954
:1010B0001A68011D30B552F821301A068FB040F180
:1010C00021813A21D020FFF70BFA72210446022237
:1010D00009ABD020FFF764F904F01001CBB29DF802
:1010E00024209DF8250023B940EA0222B2F5806F42
:1010F00005D1D0206A216422FFF74AF9FEE0E30718
:1011000040F1FC80D0207421132209ABFFF748F98D
:10111000002800F0F3809DF824409DF825007B4DC9
:101120009DF826209DF8273040EA042129809DF86B
:1011300028009DF8291043EA022441EA0022AA80EF
:101140006C80FFF7F9FEB5F90000B5F90210B5F9AA
:1011500004506F4B6F4C07EE100A01EE101A02EEAE
:10116000905AD3ED007AB8EEC70AF8EEC11AB8EE7D
:10117000E23A60EE270A21EEA72A63EE273A04F14D
:101180002C00C4ED0B0A84ED0C2AC4ED0D3AFFF7D8
:10119000DBF99DF82A209DF82B305F4D9DF82C102F
:1011A00043EA02209DF82D20288042EA01239DF881
:1011B0002E009DF82F106B8041EA0022AA80FFF7D5
:1011C0009DFEB5F90000B5F90210B5F90450534B76
:1011D00006EE900A07EE901A01EE105A93ED004ABF
:1011E000F8EEE64AB8EEE77AF8EEC11ADFED4C5AAF
:1011F00024EE845A27EE040A21EE842A25EE256A7D
:1012000060EE250A62EE252A04F1140084ED056AD9
:10121000C4ED060AC4ED072AFFF796F99DF83020C1
:10122000D00745D59DF831509DF832309DF83420D7
:101230009DF8331043EA052042EA01219DF835501C
:101240009DF83620374B42EA0522188059809A8053
:1012500000B209B212B203EE900A05EE901A00EE47
:10126000902A9FED313AB8EEE34AB8EEE56AB8EE5F
:10127000E01A64EE034AD4ED016A66EE037A94ED57
:10128000027A61EE031A94ED032A284B24EEA65A43
:1012900027EE870A61EE822A04F1200083ED003AEE
:1012A00084ED085A84ED090AC4ED0A2AFFF78EF985
:1012B000184CFFF743F9A36BA063C11A606B03EEF0
:1012C000101A00906269F8EE433A9FED194A0192B4
:1012D000A369C3EE844A0293E1690391206A0490F2
:1012E000626A14480592A36A0693E26A236B14EEBD
:1012F000901A00F021F8218A481C2082024A07CA6D
:101300000CF022F80FB030BDAC660108C00600201A
:10131000C806002054050020BA060020CC06002094
:1013200035FA8E3CB406002000084040D00600206C
:1013300000007A440000002010B52DED108B0CEE5B
:10134000903A02EE102A6CEEAC7A8AB042EE027A43
:101350009DED1C3A43EE037AD0ED009A90ED019A90
:10136000D0ED028A90ED038A044617EE900A0592AA
:1013700002910EF031FB9DED20FADDED21EA9DEDAD
:1013800022EA0CF07FFC0EF035FE0FEE900AF5EE2F
:1013900040FAF1EE10FA00F0D4812EEEAE0A0FEE14
:1013A0000F0A0EEE0E0A10EE100A0EF015FB0CF0EE
:1013B00069FC0EF01FFE00EE900AF5EE400AF1EE19
:1013C00010FA00F0BE814FF07E5306EE103A86EE22
:1013D000201AC6EE2FFA6EEE81EA2FEE01FA79EEB0
:1013E000A9AA69EEA9DA6AEE8F1ACDED04FA6AEEBF
:1013F000AEFA2EEE01EA2EEEAD2A01EE882A2FEE8D
:10140000884A6AEE8E6A1FEE2D4A79EE093A06EE98
:10141000C92A63EE8F2A06EEA84A29EE09BA02EE1F
:10142000A82A0FEE0B4A23EEAE7A0EEECB2A28EE58
:10143000A8AA07EE284A63EE8E7A78EEA8BA0EEED6
:101440008A2A2BEE8E3A07EE884A03EE082A28EE07
:1014500008CA0FEE4A4A0EEECC2A0FEE4C4A22EE94
:10146000020A04EE040A78EE084A29EE895A69EE67
:10147000A85A10EE100ACDED013ACDED064A8DEDD9
:10148000035ACDED075ACDED081ACDED092A0EF01D
:10149000A3FA0CF0F7FB0EF0ADFDDDED083A2FEEF0
:1014A000891A03EEE81A0EEE2D1ADDED094A04EE54
:1014B000881A0EEE4B1A6BEEAEDADDED03FA0DEE86
:1014C000881A7FEEAF6A0EEE4A1A4BEE886A29EE52
:1014D00008DADDED045A0EEE0C1A4CEEE56ADDED8D
:1014E000077AF6EE00CA7DEE0D1A7CEECA2A4AEEA5
:1014F000E81A3DEE674A9DED055AF0EE6F3A00EEB0
:10150000900A32EECCCA48EE883A29EE883A45EE87
:10151000651A21EE042A19EE283A00EE8C2A9DED78
:1015200001CA61EE094A2CEE26CA61EE23DA7CEE8E
:10153000CB5A40EE83DA0BEEE1CAB1EE600A32EE2E
:101540004FFA75EECAFA21EE287A37EE8DDA4FF0AF
:101550007E50F0EE647A40EE087A04EE100A3BEE1C
:101560000BBA61EE2F2A07EE4FCA7DEEEEEA40EE8F
:101570008D2A34EE4B2A3AEE0AAA9DED043ADDEDAF
:101580001C3A21EE08BA31EE016A61EE29FA07EE43
:10159000AECA9DED061A72EE4A7A43EEC37A2AEE7F
:1015A000A6DA01EE21DA32EECEEAF1EE002A69EE99
:1015B00022DA9DED062A30EEA04A0DEEE7DA62EE61
:1015C00026DA20EEA85A4AEEE1DAB1EE44AA68EE35
:1015D000A2AA05EE0ECA0BEE0FDA35EE2F5A5AEE1E
:1015E00028FA66EE095A4AEEE7DA26EE286A10EE85
:1015F000A96A60EE893A50EE885ADDED010A4AEE9A
:10160000084A05EE2EDA6BEEA6BA40EEA1BA4FEE0E
:101610008FDA73EE8B7A05EE8EDA00EE297A47EEDA
:10162000AEDA44EE8FBA46EE0EDA47EE2EBA6DEE23
:101630000D1A4CEE0C1A43EE8EBA4DEEAD1A4BEE6F
:10164000AB1AF0EE49AA11EE900A0EF0C5F90CF0B3
:1016500019FB0EF0CFFC4FF07E5107EE100A06EE9C
:10166000901A86EE870ADDED1F2A9DED1E1A9DED6C
:101670001D3A28EEA2BA68EE814A09EE83BA59EE05
:10168000434A08EE41BA29EE224A9FED305A48EE0D
:10169000624A2DEE00DA19EE814A2CEE00CA2DEED8
:1016A00005DA29EE019A08EE034A2CEE05CA09EE86
:1016B000A29A1BEE2CDA14EEACCA6DEE803ADDED88
:1016C000025A63EE85DA08EEC39A4DEE25AA54EE6F
:1016D0002CDA6BEE80BAB0EE69AA0CEE25AA2BEEDE
:1016E000852A19EE2C2AB0EE68BA0DEEA5BA6AEE7C
:1016F000AA7A4AEE0A7A02EE258A4BEE0B7A48EE77
:10170000087A17EE900A0EF067F90CF0BBFA0EF0AB
:1017100071FC4FF07E5206EE102A00EE900AC6EEE3
:10172000201A2AEE21AA6AEEA1AA2BEE21BA28EEEF
:10173000218A84ED00AAC4ED01AA84ED02BA84EDE9
:10174000038A0AB0BDEC108B10BD00BF0EC71A3F54
:1017500030B52DED108B8DB0DDED20AA0BEE103ADB
:101760006AEEAA7A4BEE0B7ADDED21DA4DEEAD7A18
:10177000D0ED009A90ED019AD0ED028A90ED038AA7
:10178000044617EE900A0B920D460EF025F99DEDDA
:1017900025EADDED26EADDED27BA0CF073FA0EF04E
:1017A00029FC9FEDB6AA0DEE100AB4EE4ADAF1EE6E
:1017B00010FA00F05E812EEEAE0A0EEE0E0A0BEE6F
:1017C000AB0A10EE100A0EF007F90CF05BFA0EF0FF
:1017D00011FC00EE900AF4EE4A0AF1EE10FA00F065
:1017E00048814FF07E5301EE103A81EE0DDAC1EEE2
:1017F000201A69EE095A68EEA8FACDED045ADDED1B
:10180000047A2BEE0DBA6AEE8DAA6DEE8DDAB6EE85
:1018100000DA3DEE6F2A28EE08FA3DEE670A29EE5F
:10182000895A8DED05BA2EEEA1BA72EE4F2A29EE35
:10183000887A69EE286A28EE886ACDED06AA6EEEEF
:1018400021AA7BEE0BEA8DED015A30EE4F5A36EEAF
:10185000C73A76EE870A3AEEAAEACDED082A8DED70
:10186000026A6BEEA1BA2EEE857ADDED084ADDED57
:10187000025ADDED016A2EEE834A0EEE207A29EE41
:10188000A8CA69EE08CA35EEE66A0EEE244ACDED26
:1018900007DA7BEEABDA7CEE8C3A0DEE867A0DEE53
:1018A000A34A27EE071A04EE041A8DED030A11EE7F
:1018B000100A8DED093ACDED0A3A0EF08DF80CF0D4
:1018C000E1F97CEECCCADDED011A9DED02CA9DED79
:1018D000044A3CEE21CA9DED032A19EEA94A72EE94
:1018E0006F2A3CEEAC3A7CEE0C3A6EEE8CEA4EEE91
:1018F0002CEA74EE6FFACDED012A8DED023ACDEDB2
:10190000033A0EF077FB9DED010A4DEE80EA04EEFE
:10191000900A7EEEAE0A74EEA47ADDED0A5A20EE4D
:10192000AC1A9DED085A9DED097A60EE80CA47EE2B
:10193000A5CA20EE8CCA07EE851A07EE87CA9DED70
:10194000076ADDED036ADDED057A9DED062A3FEEBF
:101950008FFA9DED020A66EE261A52EE0F1A6AEE13
:10196000ACEA27EE8FFA16EE00FA5BEE81EA6BEE38
:101970008C2A5BEE2C2A9DED065ADDED035ADDED37
:1019800005CA25EE006A2BEE01BA1CEEA56A1AEE16
:101990008CBADDED230A7FEE2EEAF2EE043A31EE48
:1019A000A23A9DED224A4EEEA30A03EE234A76EEBA
:1019B0000BCADDED24AA30EE8A7A4CEEA3AA74EEAF
:1019C0000A4A68EE871A59EE641A85ED00AA85ED79
:1019D00001AA85ED02AA3AEE8AAADDED0B6A48EE6D
:1019E0004A1A26EE8DDA28EE8A2A41EE8D9A69EEA1
:1019F0000A2A09EEA42A08EE472A59EE872AB0EEF1
:101A000049BA29EE079A48EE242A02EE0DBA09EEE9
:101A10008A9AF0EE68AA08EEE49A42EE8DAA2BEEBE
:101A20000B3A09EEA93A09EE0D8A0AEEAA3A08EE37
:101A3000083A13EE100A0DF0CFFF0CF023F90EF068
:101A4000D9FA4FF07E5103EE901A04EE100AC3EE5D
:101A5000844A69EEA49A2BEE24BA6AEEA4AA28EE70
:101A6000248AC4ED009A84ED01BAC4ED02AA84ED83
:101A7000038A0DB0BDEC108B30BD00BF000000002C
:101A800006EE903A90ED095A90ED076A66EE855A97
:101A9000D0ED084A75EEC63AD0ED000A33EEE40AFE
:101AA00090ED044AD0ED061A03EE102A30EE201A0B
:101AB00073EE447A46EE811A90ED037AC0ED057A12
:101AC00006EEA77AD0ED027A36EE652A74EEE52AA4
:101AD00071EEA75A90ED013A82EEA56A06EE835A9E
:101AE00004EE901AF0EE456A81EEA55A74EEC73AFC
:101AF000B0EE420A06EE234A05EE237A80ED044A50
:101B0000B0EE614A05EE614A05EE420A46EE612AF0
:101B100046EE426A80ED037A80ED064A80ED070AC0
:101B2000C0ED082AC0ED096A17EE100A70478360FD
:101B3000002301604260C36003618361C36103628B
:101B400043627047C16070474069704701607047E9
:101B50004160704781607047006870474068704717
:101B600080687047094B1A785978914202D1084928
:101B7000012008705A709A78DB78934202D10449A8
:101B800001204870014BDA70704700BFA8050020A3
:101B90001000002041EA0020704700000000000013
:101BA0002DE9F041102188B0594809F069FA02285E
:101BB00040F0A38069462022554809F016FA54489F
:101BC000102109F079FA00240DF1FF3313F8012FE9
:101BD000302A03D00134122CF8D18EE093F8018022
:101BE000B8F1000FF6D15879A228F3D1197A2B2930
:101BF000F0D15A7AFE2AEDD108AB1C1940F2C55239
:101C000014F81E6C14F81D7C424D47EA0620A0F51E
:101C100099714EF66026714391FBF2F00DF0CAFE09
:101C200037A3D3E900230EF055F80EF0E3F914F8CA
:101C3000193C14F81A7C686043EA0720A0F63211B8
:101C4000714340F29A5791FBF7F2A2F5EA4030381F
:101C50000DF0B0FE2CA3D3E900230EF03BF80EF0FC
:101C6000C9F914F8153CA86014F8160C43EA0021D1
:101C7000A1F58952103A724392FBF7F0A0F5EA40C1
:101C800030380DF097FE20A3D3E900230EF022F8A0
:101C90000EF0B0F914F8113C14F8121CE86043EA95
:101CA0000122A2F5C9501238464396FBF7F1A1F57F
:101CB000EA4030380DF07EFE13A3D3E900230EF086
:101CC00009F80EF097F914F8142C14F8133C286155
:101CD00042F2321143EA0220884202D185F8148090
:101CE00005E042F2CA62904201D101232B752A78A5
:101CF00009490020531C08702B7008B0BDE8F08122
:101D000000000000004CED4000000000004CDD40F1
:101D1000B4640108A805002010000020AFF3008083
:101D20007FB50021142201A80EF0DEFB102120480F
:101D300009F0A6F9022839D101A914221C4809F09A
:101D400054F91B48102109F0B7F9002301AA985C47
:101D5000022803D00133082BF8D127E006A9CB18BD
:101D6000144A13F8121C13F8130C41EA0020D08215
:101D700013F8101C13F8110C41EA0020108313F81B
:101D80000E1C13F80F0C41EA0020508313F80C1CB2
:101D900013F80D0C13F80B3C41EA00209083937765
:101DA0000548937800214170591C917007B000BD1F
:101DB0004C640108A80500201000002008B5074A5F
:101DC00064200121002309F049FA054A106018B186
:101DD000BDE8084009F078BA08BD00BF651B0008DF
:101DE000D4060020014B1878704700BFA8050020DA
:101DF000014B1878704700BF100000200000000061
:101E00002DE9F0412DED028B554C1746227D1E46E3
:101E100005468846534B002A38D11878002839D116
:101E200094ED017ADFED507A27EE270A9FED4F8A75
:101E300085ED000AD4ED048A18EE900A0DF0CCFD71
:101E400041A3D3E9002304460D460EF0A9F838B9A2
:101E5000204629463EA3D3E900230EF083F820B1A3
:101E600068EE888AC8ED008A02E00021C8F80010F8
:101E70003B4AD2ED030A20EE881A87ED001AD2ED14
:101E8000021A21EEC88A86ED008A58E0587808B90F
:101E9000197831B100232B60C8F800303B60336003
:101EA0004DE0B4F916000DF085FD2BA3D3E9002316
:101EB0000DF010FF00222E4B0DF030FC00222D4BB8
:101EC0000DF0DEFD00222C4B0DF0DAFD0EF092F845
:101ED000B4F91820286050420DF06CFD1EA3D3E920
:101EE00000230DF0F7FE0022244B0DF0C9FD0EF08B
:101EF00081F8C8F80000A37FB4F91A00012B08BFCD
:101F000040420DF057FD14A3D3E900230DF0E2FE8B
:101F100000221A4B0DF0B4FD0EF06CF83860B4F9E5
:101F20001C000DF047FD0CA3D3E900230DF0D2FEF9
:101F30000022124B0DF0A4FD0EF05CF83060BDECF9
:101F4000028BBDE8F08100BF7B14AE47E17A843F8D
:101F50007B14AE47E17A84BF00000000C0FFDF4081
:101F6000A8050020100000200000C8420000B44274
:101F70000000F03F000059400000E03F0080564064
:101F800010B5029C401AE41A4443521A94FBF2F131
:101F9000C81810BD70B50C460D49BDF8105008703A
:101FA000C870887148720420260A8C704A71140A1D
:101FB00008731A0A0748CA710B720D222B0A4E7059
:101FC0000C718B72CD72BDE8704009F03FB800BF54
:101FD000D80600208064010890ED007AD1ED007AE7
:101FE00037EE670A2DE9F04110EE100A90461F46C1
:101FF0000DF0F2FC27A3D3E900230DF041FD0022F0
:10200000234B079D069E089C0DF064FE0DF0F2FF29
:102010004FEA880108F1FF3204EE100A731805EB4D
:102020008200D0ED000AD3ED006A44EE260A78184B
:10203000C4ED000A6918002A11DD30ED015AD4ED13
:10204000005A73ED014A25EE257A14EE247A51EDFB
:10205000027A37EE270A013A21ED010AEBE797ED04
:10206000006AD4ED001A96ED001A26EE212A14EE2D
:10207000012AB5EE003A85ED002AD4ED002A62EE81
:10208000833AC4ED003ABDE8F08100BFAFF30080B1
:1020900000806640182D4454FB210940AFF30080B6
:1020A00090ED007AD1ED007A37EE670AF8B510EEC0
:1020B000100A17461E460DF08FFC0EA3D3E900232D
:1020C0000DF0DEFC00220A4B0DF004FE04463868D9
:1020D0000D460DF081FC02460B46204629460DF0C8
:1020E000CFFC0DF087FF3060F8BD00BFAFF300807C
:1020F00000808640182D4454FB210940AFF3008036
:10210000D3ED007AB1EE047AF4EEC77A10B5F1EEB1
:1021100010FA029C40DDD0ED006A91ED000A92EDCC
:10212000001A76EEC00A70EEC11A31EEA72A84EDCD
:10213000002AD1ED002AD0ED003AB1EE623AD2ED9C
:10214000004A33EE634AD3ED005A34EE245A35EE9A
:10215000256A84ED016A91ED007AD0ED007A92ED66
:10216000000A77EE276A93ED001A76EE800A70EE89
:10217000811AC4ED021A91ED002AD0ED002AD2EDA9
:10218000003A32EE623AD3ED004A33EE634A34EE5F
:10219000245A84ED035A07E0C4ED007A1A6862609D
:1021A0001868A0601B68E360DFED255A94ED006AB3
:1021B000B4EEE56AF1EE10FAC8BFC4ED005A94ED32
:1021C000007AB5EEC07AF1EE10FA01D50023236053
:1021D000D4ED017AF4EEE57AF1EE10FAC4BF194BB2
:1021E0006360D4ED016AF5EEC06AF1EE10FA01D534
:1021F0000023636094ED020AB4EEE50AF1EE10FAF2
:10220000C4BF104BA360D4ED020AF5EEC00AF1EE94
:1022100010FA01D50023A36094ED031AB4EEE51A79
:10222000F1EE10FAC4BF074BE360D4ED031AF5EEEC
:10223000C01AF1EE10FA01D50023E36010BD00BF13
:102240000000C8420000C842FEE7FEE7FEE7FEE7E6
:10225000FEE7FEE7FEE7FEE7FEE7FEE7FEE7FEE756
:10226000FEE7FEE7FEE7FEE7FEE7FEE7FEE7FEE746
:10227000FEE7FEE7FEE7FEE7FEE7FEE7FEE7FEE736
:10228000FEE7FEE7FEE7FEE7FEE7FEE7FEE7FEE726
:10229000FEE7FEE7FEE7FEE7FEE7FEE7FEE7FEE716
:1022A000FEE7FEE7FEE7FEE7FEE7FEE7FEE7FEE706
:1022B000FEE7FEE7FEE7FEE7FEE7FEE7FEE7FEE7F6
:1022C000FEE7FEE7FEE7FEE7FEE7FEE7FEE7FEE7E6
:1022D000FEE7FEE7FEE7FEE7FEE7FEE7FEE7FEE7D6
:1022E000FEE7FEE7FEE7FEE7FEE7FEE7FEE7FEE7C6
:1022F000FEE7FEE7FEE7FEE7FEE7FEE7FEE7FEE7B6
:10230000FEE7FEE7FEE7FEE7FEE7FEE7FEE7FEE7A5
:10231000FEE7FEE7FEE7FEE7FEE7FEE7FEE7FEE795
:10232000FEE7FEE74FF0010070470000164AD36851
:10233000B3F5803F30B522D1144B1868410721D541
:102340009C689868C4F303614C1CC0F30621481CC8
:102350009968DB68D268C1F30641013113F0010FBF
:1023600014BF0B4D0B4D0C4BB5FBF4F46043B0FBAD
:10237000F1F0D1B24A1CB0FBF2F0186030BD044855
:102380000549086030BD00BF0046005010470050AE
:1023900000366E01001BB70014000020734BD3F809
:1023A000882042F4700010B5C3F88800596921F004
:1023B00008025A616E4B586820F0010159606D4B5C
:1023C0005A6922F00F0040F0030159610BF066FAE0
:1023D000002800F0C780684B684A586802402AB15C
:1023E000596821F4803020F002025A60644B596829
:1023F00011F0300F04D1604B1868400731D5B1E0BF
:10240000586820F0F0025A60596841F40030586072
:10241000594BDA6822F00101D9605868594920F413
:1024200000325A60584B00200522596098601A60AB
:10243000514B1968544B01F46070B0F5607F03D0C4
:102440009A68B2F5FA7FF3D2196821F0010018609A
:10245000494B1A6802F46071B1F5607F40F08280E8
:10246000C9E74A4AD168C90303D5D06820F480314E
:10247000D1605A6842F0010058605968444841F000
:1024800010025A609860596841F040025A605868DA
:1024900020F0100159605A683A4942F4802058608F
:1024A000394B0022052059609A601860324B196838
:1024B000354B11F0040F03D19A68B2F5FA7FF5D2CB
:1024C0001968314821F001021A602B4B19684A073C
:1024D00048D55C6824F001025A602C4A0021116141
:1024E00051611162D46844F48034D4605A6822F097
:1024F00040025A6040F2455343608160052101600B
:1025000021488268632AFBD803681B4A23F0010133
:10251000204B016040F61B41936041600023052180
:102520008360016018488368632BFBD8016821F041
:102530000103194903609160002341F22332052110
:1025400042608360016010488268632AFBD8036898
:1025500023F00101084B01601048A3F5B661052284
:102560009860CA60BDE81040FFF7E0BE00ED00E0F3
:102570000080005000200058104700500200010069
:1025800000470050A34B4C0010E000E00046005014
:10259000014F1301014F0701014F0401014F0301D6
:1025A0002DE9F043464C474D85B02846271D04F1E0
:1025B000080804F10C09FEF7DFFC04F110063946A7
:1025C000424620464B46FFF71BFC38462946334619
:1025D0003D4AFFF765FD3D4B3D48009304F114076C
:1025E000291D01900297404602223A4BFFF7F4FC66
:1025F00039493A4A009104F1180805F1080101929D
:1026000048460222364BCDF8088004F11C05FFF73E
:10261000E3FC32463946234600954046FFF770FDFD
:10262000E0690DF0D9F900222E4B0DF053FB22A3E7
:10263000D3E900230DF024FA0DF0BCFC87B2206A28
:102640000DF0CAF90022274B0DF044FB1AA3D3E981
:1026500000230DF015FA0DF0ADFC86B2A06A0DF066
:10266000BBF900221F4B0DF035FB13A3D3E9002368
:102670000DF006FA0DF09EFC85B2606A0DF0ACF923
:102680000022184B0DF026FB0BA3D3E900230DF01D
:10269000F7F90DF08FFC83B20093222039463246C1
:1026A0002B46FFF777FCA08D411CA18505B0BDE846
:1026B000F08300BFAFF300800000000000FC9340F7
:1026C000C8050020FC06002098600108780700205B
:1026D00094070020E8060020F00600208407002070
:1026E0008C0700200000594008B54FF47A70FDF7C0
:1026F0001BFFFEF7DDFB104B104A114811491A6011
:102700005860114A99601149114B124819605A607A
:10271000114B18601148586011489860114B1960AE
:102720005A60FFF74BFB4FF47A70FDF7FDFE0E4841
:10273000BDE8084009F061B9F006002021EACD4269
:10274000944051C30797D4421C1BEFBF38365E3FFD
:102750008C07002090069E4278070020630120C36A
:1027600036FCA142E8060020D8650108F0B587B024
:102770000AF0FAFD00F0AEF9FFF7B6FF00F036FA06
:102780000546002800F0CC8000276C4E7C1C06F12A
:102790002E00A7B200F0EEF9AF42F6D196F92E3036
:1027A000313B082B00F2B980DFE813F0090020006C
:1027B0002400B700370052007A0088009E0030687D
:1027C0000DF00AF9044670680D460DF005F9CDE9E3
:1027D0000001B0680DF000F9CDE90201F0680DF0DC
:1027E000FBF8CDE90401564856492CE0564809F05B
:1027F00004F992E0554E30680DF0EEF8044670682A
:102800000D460DF0E9F8CDE90001B0680DF0E4F8EF
:10281000CDE902014A484E497BE0F0690DF0DCF851
:102820000446306A0D460DF0D7F8CDE90001706A14
:102830000DF0D2F8CDE90201B06A0DF0CDF8CDE986
:1028400004013F48434922462B460DF005FF64E052
:102850003E4F96ED017AD7ED007A37EE670A10EE1B
:10286000100A0DF0B9F8D6ED020A97ED011A70EED4
:10287000C11A044611EE900A0D460DF0ADF8CDE9EF
:102880000001D7ED022A96ED032A32EE623A13EEEA
:10289000100A0DF0A1F8CDE9020129482E4938E0CF
:1028A000FEF764FBB68D0546FFF79CFA2B490090B6
:1028B0002A46334622480DF0CFFE2EE0284F3846F8
:1028C000FEF7D0FB38680DF087F8044678680D46AF
:1028D0000DF082F8CDE90001B8680DF07DF8CDE982
:1028E000020117481F4914E01D4E3046FEF7D4FB85
:1028F00030680DF071F8044670680D460DF06CF804
:10290000CDE90001B0680DF067F8CDE902010C488F
:10291000154922462B460DF09FFE094800F018F994
:10292000064890F892202AB1002180F892100448BD
:1029300000F00EF907F0AAFF20E700BFC80500204D
:1029400014070020C060010848650108FC0600204B
:10295000F860010811610108326101084561010850
:10296000080700206D610108926101087FB50F4ED4
:102970003046FEF76DFB30680DF02EF804467068A7
:102980000D460DF029F8CDE90001B0680DF024F8EE
:102990002246CDE902012B46054806490DF05CFEB2
:1029A000054B012283F892207FBD00BF080700205D
:1029B00014070020AB610108C80500204FF0FF306C
:1029C00070474FF0FF307047002070474FF0FF30E6
:1029D00070474FF0FF30704700290CBF6FF00100C7
:1029E0004FF0FF307047814214BF6FF001004FF08D
:1029F000FF3070474FF0FF30704700000A4B1A68F5
:102A000022B90A4A0A491A6052185A601A685B6861
:102A1000D11D081820F0070199423ABF024B1960F6
:102A200000221046704700BF6C060020280F0020CF
:102A3000D8F000004FF0FF3070474FF0FF30704784
:102A40004FF0FF3070474FF0FF3070474FF0FF30CE
:102A50007047FEE770474FF0FF307047000A431E93
:102A6000DBB2012B05D8054850F82310C318187A9B
:102A700001E0002001461160704700BFB861010805
:102A8000014B02221A7070477B0A0020014B002282
:102A90001A7070477B0A0020014B03221A7070479E
:102AA0007B0A00200268034B1A60406858600248A5
:102AB00008F022B87C0A00201800002008B503485E
:102AC00007F000FF024B04221A7008BD1800002016
:102AD0007B0A002010B5064C204607F07DF92068DF
:102AE00020B1044907F078FB002010BD012010BD83
:102AF000780600203000002010B50146074807F096
:102B000043FF002814BF06240024044807F05CFF9C
:102B100000280CBF2046062010BD00BF1800002072
:102B200008B50A46034661B10848194607F014FF84
:102B300048B9064807F048FF002814BF06200020C7
:102B400008BD012008BD062008BD00BF18000020F8
:102B500008B50146064807F0E5FE38B9044807F015
:102B600033FF002814BF0620002008BD062008BD42
:102B70001800002010B50446044807F071FF431CFC
:102B800002D02070002010BD062010BD18000020CB
:102B900037B505460C4604200021ADF8061007F0B5
:102BA00097FC2846A1B20DF1060207F05BFE05284E
:102BB000F7D0002814BF4FF0FF3000203EBD0000CA
:102BC000084B197804290BD1074B1A6942B138B167
:102BD0000260998A103381809B798371002070474D
:102BE000012070477B0A00201800002070B5074DB7
:102BF00007484FF40064C5F88C4007F015FF0646FF
:102C000008B907F071FBEC60304670BD00E100E0F0
:102C100018000020014B00221A7070477C0600202B
:102C200038B50D4D0D4A012300212B700B4608F0DD
:102C300015FB044670B108F047FB58B92878002806
:102C4000FCD1204608F062FB20B92046BDE83840A0
:102C500008F07ABB38BD00BF7C060020152C0008A8
:102C60000DF042BC0DF0D2BA0DF072BB0DF072BA8D
:102C70000DF096BE0DF018BD0DF062BE0DF002BE57
:102C800070B506460DF05CFE441C20460DF052FA6D
:102C9000054618B131462246FFF7E4FF284670BDCD
:102CA00000207047704738B508460C460DF042FAD0
:102CB000054618B1002122460DF016FC284638BD05
:102CC00010B500201446FFF7EEFF04B1206010BDE0
:102CD00008460DF02FBA08460DF034BA43788278D2
:102CE000190441EA0223C2780078134343EA0060E2
:102CF000704743788278190441EA0223C278007849
:102D0000134343EA0060704743788278190441EA2C
:102D10000223C2780078134343EA00607047437887
:102D20008278190441EA0223C2780078134343EA07
:102D3000006070470278407840EA022070470278CD
:102D4000407840EA022070470278407840EA02204A
:102D500070470278407840EA022070470068704768
:102D600001607047036823EA01010A43026070476B
:102D7000012070477047704770470000024B4FF4C6
:102D80000062C3F88C20704700E100E0024B4FF472
:102D90000062DA60704700BF00E100E00020704789
:102DA0007047704700207047704707B50190019B3E
:102DB000B3F57A7F01D80A2005E04FF47A71B0FBB1
:102DC000F1F001900198FFF72BFF0EBDFFF728BF30
:102DD00007B501900198FFF723FF0EBD0020704753
:102DE00038B500200C461C211546FFF75CFF08B1E2
:102DF0008460C56038BD0DF0A5B9704770470020EC
:102E00007047704700207047002070477047704738
:102E100000207047002070470020704738B5002020
:102E20000C460C211546FFF73EFF08B180E8300044
:102E300038BD0DF087B9704700207047002014217D
:102E4000FFF731BF0DF07EB908B401B0704770478D
:102E50000020704708B5836E1BB11A680AB19869E3
:102E6000904708BD08B5C36E1BB11A680AB19869CE
:102E7000904708BD38B50C4605460223406863F309
:102E8000DC6460302146FFF76BFFC4F3076404F095
:102E900018042CB168686030FFF760FF0446F4E75F
:102EA00038BD38B5054600240123406863F3DC646F
:102EB00060302146FFF754FFC4F3076000F01801AB
:102EC00029B168686030FFF749FF0446F4E72046FF
:102ED00038BD70B504460D461646FFF7E2FF20EAFE
:102EE000050131432046BDE87040FFF7C3BF012311
:102EF000C0F8B830D0F8B40040F24C41FFF77DBFC5
:102F000070B5044600F083FC00252368E168D3F81F
:102F10008000854210DAAE1C013551F826000021F0
:102F20000C30FFF71DFFE16851F826004FF0FF312C
:102F30000830FFF715FFE8E7086800211830FFF7B1
:102F40000FFFE26810684FF0FF311430FFF708FF01
:102F500094F84950A5BBA068006829461030FFF7D7
:102F6000FFFEA36893F845108D4209DC03EB850250
:102F70004FF0FF3150680830FFF7F2FE0135F0E7FF
:102F8000186800211430FFF7EBFE0025A06890F8C8
:102F90004620954209DC00EB85004FF0FF31406A86
:102FA0000830FFF7DDFE0135F0E700684FF0FF3134
:102FB0001830FFF7D5FEA568286800211C303BE0DB
:102FC0000025A36893F84500854212DA1B6805F1D5
:102FD000100003EB80000021FFF7C2FEA16801EBA7
:102FE00085024FF0FF3150680830FFF7B9FE013518
:102FF000E7E70025A16891F84620954212DA0B68B0
:1030000005F1180003EB80000021FFF7A9FEA1687D
:1030100001EB85024FF0FF31506A0830FFF7A0FE48
:103020000135E7E7086800213C30FFF799FEA56805
:1030300028684FF0FF313830FFF792FE60680022B9
:1030400008300121FFF78EFE606800211830FFF77D
:1030500087FE60684FF0FF311430FFF781FE636830
:103060004FF0FF31181DFFF77BFE204602F0AEFB4C
:1030700028B160684FF080411830FFF771FE20469C
:1030800000F0BFFB4FF400250121C4F8A410204636
:103090002946FFF7EFFEC5F3074000F00802D5B25E
:1030A00025B12046FFF7FDFE0546F4E701234FF06A
:1030B000A06163F3010163F3830163F3051120460B
:1030C00041F49011FFF7D6FE284670BDC36870B575
:1030D00000250446C0F8B850294658684FF480527D
:1030E000FFF740FED4F8900002282E46606812D107
:1030F00065F341065830294646F01802FFF732FEC4
:10310000E06929460122FFF72DFE60682946583004
:1031100046F01A0202E0583029460222FFF722FE4A
:10312000D4F89010022905D160682021583000227F
:10313000FFF718FE6068002158304FF48032FFF727
:1031400011FE2046BDE87040FFF7DABE0123C0F84B
:10315000B030D0F8AC0040F6B831FFF74EBE70B5D5
:1031600004464FF4002500F052FB0123C4F8A830B8
:1031700020462946FFF77EFEC5F3074606F0080005
:10318000C6B220461EB1FFF78CFE0546F4E745F0B7
:103190000571FFF76FFE2046FFF7D8FF304670BD80
:1031A00038B500234FF40025C0F8A4302946044662
:1031B000FFF760FEC5F3074505F00800C5B22046DD
:1031C0001DB1FFF76EFE0546F4E72946FFF752FEF4
:1031D000204600F016FB284638BD38B500234FF4D2
:1031E0000025C0F8A83029460446FFF743FEC5F382
:1031F000074505F00800C5B220461DB1FFF751FE96
:103200000546F4E72946FFF735FE204600F0F9FAB7
:10321000284638BDD0F89410002310B50446C0F8F5
:10322000B03031B1FFF7D9FF2046BDE81040FFF7BD
:1032300067BE10BDC36810B5002104464FF480522C
:103240005868FFF78FFD2046BDE81040FFF74FBEDE
:10325000D0F8943010B50446002B35D040680021DA
:1032600058300222FFF77EFD606800214FF4803263
:103270005830FFF777FD60685830FFF76FFDC0F3F7
:10328000074000F02001CAB242B96068FFF766FD4E
:10329000C0F3074303F00800C1B239B90123204647
:1032A000C4F89830BDE81040FFF72ABE042284F825
:1032B0006420204602F092FA204600F0A2FA20464E
:1032C000BDE81040FFF7CEBD10BD000010B50023D3
:1032D00004464FF0FF32C0F89830C0F89C20C0F888
:1032E000A020C0F8A430C0F8A830C0F8B030C0F8B2
:1032F000B8300220C4F8BC00074908482246FFF74E
:103300006FFD0749C4F8AC0022460648FFF768FD88
:10331000C4F8B40010BD00BF153200088462010873
:10332000CD3000089462010810B50446D0F8AC0016
:10333000FFF761FDD4F8B400BDE81040FFF75BBDB6
:1033400070B50446FFF7ADFDC0F3805313EA506338
:10335000054606D0D4F8AC00FFF750FD2046FFF735
:10336000F5FEC5F3405010EA156305D1C5F3C05111
:1033700011EA956300F0BA80D4F89C305A1CC5F36A
:103380008A1504D1C4F89C50C4F8A0303DE0D4F8AC
:103390009820C4F8A030C4F89C50002A35D00025ED
:1033A000C4F898502046FFF7FBFE60682946583065
:1033B0002A46FFF7D7FC60685830FFF7CFFCC0F310
:1033C000074000F02001CBB27BB1012084F86400FB
:1033D000204602F003FA204600F013FA2046FFF7D9
:1033E00039FD2046FFF726FF80E0042284F86420A0
:1033F000204602F0F3F9204600F003FA2046FFF7DA
:1034000031FD204603F0C7FB70E060685830FFF7DD
:10341000A5FCD4F89C10D4F8A0309942054627D0DA
:103420002046FFF7BDFED4F89060022E07D16068F9
:1034300045F02005583000212A46FFF793FCC5F3DC
:10344000074505F02002D6B2606896B30225002237
:1034500058302946FFF786FC012184F86410204685
:1034600002F0BCF9204600F0CCF92046FFF7F2FC50
:10347000C5F3074303F04002D5B2002D36D0606893
:10348000002258304FF48031FFF76CFC6068022155
:1034900000225830FFF766FC042084F864002046C0
:1034A00002F09CF9204600F0ACF92046FFF7DAFC68
:1034B0001CE0583032464FF48031FFF753FC60680F
:1034C0000225294632465830FFF74CFC042084F888
:1034D0006400204602F082F9204600F092F920466E
:1034E000FFF7C0FC204603F056FBC1E720464FF42F
:1034F00060010022FFF7EDFC002070BD70B50446AE
:1035000040685830FFF72AFCC0F30746054606F02E
:103510002000C6B2D4F89430002E34D0CBB120466F
:10352000FFF73EFED4F89000022806D16068002123
:10353000583045F02002FFF715FC012384F8643071
:10354000204602F04BF9204600F05BF92046FFF7D9
:1035500081FCE1684868FFF701FC02466FF38202D4
:103560006FF34102E0686FF3C3026FF345124068E6
:1035700042F48051FFF7F4FBA36E2BB3596919B3E2
:103580009869884720E0FBB12046FFF709FED4F890
:103590009010022906D160683146583045F020026B
:1035A000FFF7E0FB606800210A465830FFF7DAFBBE
:1035B000042284F86420204602F010F9204600F02E
:1035C00020F92046FFF74EFC012070BD08B5C36806
:1035D0005868FFF7C3FB20F02E0008BD38B5B0F8DF
:1035E0005030044603F47070B0F5C07F03D12168F9
:1035F000D1F89C203AB92568D5F88830D3F1010577
:1036000038BF002500E00125E0680068FFF7A6FB51
:10361000E2680146106865F30101BDE83840FFF734
:103620009FBB38B5446805464FF0FF31201DFFF7BA
:1036300097FB04F114004FF0FF31FFF791FB95F871
:103640004610002914BF0622162204F1180042F089
:103650007041BDE83840FFF783BB38B5B0F8503053
:10366000044603F47070B0F5C07F03D12168D1F82F
:103670009C204AB92568D5F888302BB16869411E6D
:103680004A4252EB010500E00325A3681868FFF7E2
:1036900065FB0146A068006865F30101BDE838409C
:1036A000FFF75EBB426A4368C2F31202B2FBF3F15A
:1036B000F0B503FB1124002C0CBF0D464D1C05B9C1
:1036C000012501698562002408312546866AB442D5
:1036D000A1F1080344D24668B24211F8056C14D92E
:1036E00066F03F0606F0F5066FF38206DE70868808
:1036F0001E808668AE1941F8046CDE786FF3871679
:10370000DE704368D21AED1827E046F0CA07DF7072
:103710004678F60713D54788C7F38A06B2FBF6F753
:1037200006FB172626B990F82270C7F3C00700E001
:103730000127DE781A8067F38206DE7005E096B214
:10374000774207F00307F6191E808668AE1941F824
:10375000046CDE786FF38716DE7001340831B5E74C
:10376000F0BD10B58B7803F0C001C029144601D01C
:1037700040290CD1C06800680830FFF7EFFA2368D1
:1037800000F0010282F0010161F35D73236010BD5E
:1037900010B504464068012108300022FFF7E2FA24
:1037A000606800211830FFF7DBFAA06F30B14FF4EA
:1037B000FA71FFF741FBA06FFFF744FBA16811B15D
:1037C0000020FFF788FAE16811B10020FFF783FAC3
:1037D000D4F8943013B12046FFF7A6FD216811B14B
:1037E0000020FFF778FAE06F08B1FFF704FBA0694B
:1037F00008B1FFF700FB00202146BDE81040FFF7AD
:103800006ABA4068002108300122FFF7ABBA40686D
:10381000012108300022FFF7A5BA000070B5D0F8EA
:103820008440054644B920464C21FFF73CFA044643
:10383000002842D0C5F884006868FFF78FFA20603E
:1038400068681830FFF78AFA606068680830FFF728
:1038500085FAA06068680C30FFF780FAE06068685D
:103860002430FFF77BFA206168682830FFF776FA8A
:103870006061686800F58070FFF770FAE061686861
:103880003030FFF76BFAA061E869FFF767FA206252
:1038900068685C30FFF762FA00266062696801EBD5
:1038A000860202F58270FFF759FA04EB86030136AF
:1038B000082E9862F2D1002070BD014870BD00BF93
:1038C00016FCFFFF38B5D0F8844005463CB92046C9
:1038D0004C21FFF7E8F9044640B1C5F88400686858
:1038E0001830FFF73BFA6060002038BD004838BD53
:1038F00016FCFFFF2DE9F041D0F88C40054644B995
:1039000020469421FFF7CFF90446002854D0C5F88B
:103910008C00AB681868FFF721FA2060A86801687E
:10392000081DFFF71BFAAA68606010681C30FFF7DB
:1039300015FAAE68A06030681030FFF70FFAAF6874
:10394000E06038681430FFF709FA26462061002746
:10395000AB6893F845000436874219DA4FEA8708C6
:1039600003EB080201375068FFF7F8F9AB683061E4
:1039700003EB080040681030FFF7F0F9A9683063E6
:1039800001EB080250681430FFF7E8F93065DFE713
:103990000026A96891F8462096420ADA01EB8603D0
:1039A000586A0430FFF7DAF904EB860101364867FC
:1039B000EFE70020BDE8F0810148BDE8F08100BFDD
:1039C00016FCFFFF70B5D0F8884005463CB920468C
:1039D0003021FFF768F9044650B3C5F88800EB685A
:1039E0001868FFF7BBF92060E86800681830FFF737
:1039F000B5F9002660602968EB68D1F8802096420E
:103A00000ADAB21C53F822000C30FFF7A7F904EBD6
:103A1000860301369860EEE75868FFF79FF9A062C9
:103A2000E8680168081DFFF799F9E062002070BDA1
:103A3000004870BD16FCFFFF70B5D0F884500446F6
:103A4000002D48D040682968FFF78AF960686968E6
:103A50001830FFF785F96068E9680C30FFF780F9E6
:103A60006068A9680830FFF77BF96068296924302D
:103A7000FFF776F9606869692830FFF771F96068C7
:103A8000E96900F58070FFF76BF96068696A5C307E
:103A9000FFF766F90026616805EB860301EB8602F5
:103AA00002F58270996A0136FFF75AF9082EF2D1B1
:103AB00060684FF0FF311430FFF752F9E06841F2CF
:103AC0000A014068FFF74CF96068A9680830FFF701
:103AD00047F9002070BD6FF47A7070BD2DE9F04198
:103AE000D0F88C500446002D4ED029B983686968FF
:103AF00018680430FFF734F9A1680868A9681C3019
:103B0000FFF72EF9A268E96810681030FFF728F96E
:103B1000A668296930681430FFF722F92E4600277D
:103B2000A36893F845000436874219DA4FEA8708FC
:103B300003EB080231695068FFF712F9A368316B93
:103B400003EB0800013740681030FFF709F9A1685E
:103B500001EB0802316D50681430FFF701F9DFE71F
:103B60000026A16891F8462096420ADA01EB860306
:103B700005EB8601586A496F0430FFF7F1F801360A
:103B8000EFE70020BDE8F0816FF47A70BDE8F081C6
:103B900070B5D0F888600546F6B1C368316818681A
:103BA000FFF7DEF8E868716800681830FFF7D8F8AA
:103BB00000242968D1F8802094420BDAEB68A01C1D
:103BC00006EB840153F8200089680C30FFF7C8F831
:103BD0000134EEE7002070BD6FF47A7070BD08B557
:103BE0004268D0F8843002F130009969FFF7B8F8E4
:103BF000002008BDF8B5044617460E46FFF7EFFF54
:103C0000E0690021FFF7ACF8D4F884502F492B6A03
:103C1000E069194041F40031FFF7A2F8AA68606832
:103C200042F001010830FFF79BF860684FF0FF3168
:103C30001430FFF795F860684FF480311830FFF7C3
:103C40008FF86068D4F884300C30D968FFF788F8B2
:103C5000EFB1E068D4F8881000680968FFF780F8D1
:103C60002A6A42F400310EB141F40071E069FFF7B5
:103C700077F80A20FFF799F82B6A23F47F5020F099
:103C80003F0242F40051DEB142F4085118E0A0684E
:103C9000D4F88C1000680968FFF762F82A6A42F4C9
:103CA00000310EB941F40271E069FFF759F80A20BA
:103CB000FFF77BF82B6A43F408310EB941F4027127
:103CC000E069FFF74DF80020F8BD00BF00C0FDFF20
:103CD000D0F8C03070B504460D46002B00F0BB8014
:103CE0004068202100225830FFF73CF80A20FFF7F7
:103CF0005CF86068102100225830FFF733F80A2082
:103D0000FFF753F86068002104225830FFF72AF8C3
:103D10000A20FFF74AF86068082158300022FFF7B0
:103D200021F815B14620FFF740F8606800263146BB
:103D300010225830FFF716F80A20FFF736F86068AF
:103D4000012158303246FFF70DF86068434958307A
:103D50003246FFF707F829463246C4F8C0602046CD
:103D6000FFF748FF0A20FFF720F8D4F8C00098B901
:103D70004FF4FA6660681430FEF7F0FFC30306D50F
:103D800060684FF480311430FEF7EAFF04E00A2047
:103D9000FFF70BF8013EEDD160684FF0FF311430B2
:103DA000FEF7DEFF6068042158300022FEF7DAFFDC
:103DB0000A20FEF7FAFF25B9E06908212A46FEF736
:103DC000D1FF6068D4F884100C30C968FEF7C8FFD2
:103DD000D4F88C30A26819681068FEF7C1FF6068DB
:103DE000022158300022FEF7BDFF0A20FEF7DDFF5A
:103DF000A0683DB90068294604304FF40062FEF720
:103E0000B1FF08E0D4F88C1003684A68181D42F02E
:103E10000101FEF7A5FF0220FEF7D8FF60684FF012
:103E2000FF311430FEF79CFF2046FFF705FE2046C9
:103E30002946FFF753FE4DB10720FEF7C7FFA168E3
:103E40000A680121101D0022FEF78CFF0023C4F830
:103E5000C03084F88030012070BD00BF00550100E3
:103E60002DE9F04104464068884658302021174625
:103E70000022FEF777FF0A20FEF797FF6068102107
:103E800000225830FEF76EFF0A20FEF78EFF6068B2
:103E9000002104225830FEF765FF0A20FEF785FF57
:103EA0006068082158300022FEF75CFFB8F1000F6F
:103EB00002D13220FEF779FF6068002529461022E2
:103EC0005830FEF74FFF0A20FEF76FFF60680121B0
:103ED00058302A46FEF746FF6068544958302A4653
:103EE000FEF740FF41460122C4F8C0502046FFF7CC
:103EF00081FE0A20FEF759FFD4F8C0309BB94FF479
:103F0000FA6660681430FEF729FFC20306D56068C0
:103F10004FF480311430FEF723FF04E00A20FEF74F
:103F200044FF013EEDD100266420C4F8C060FEF7D6
:103F30004DFF60684FF0FF311430FEF711FF6068ED
:103F4000324604215830FEF70DFF0A20FEF72DFF00
:103F50006068D4F884100C30C968FEF701FFE2688D
:103F6000D4F8885010682968FEF7FAFE60680221CC
:103F700032465830FEF7F6FE0A20FEF716FFD4F858
:103F80008800E268836A506843F4805166F38201D6
:103F900021F08001FEF7E4FED4F88850A86AB7B992
:103FA00040F4825567F38205E26867F3C7155068ED
:103FB0002946FEF7D5FEB8F1000F01D167F386154B
:103FC0006420FEF703FFE0682946406811E040F4F2
:103FD0008855E36866F3820566F3C7155868294675
:103FE000FEF7BEFE3C20FEF7F1FEE168486825F4CE
:103FF0008071FEF7B5FE2046FFF7E8FAE36840F06F
:104000000A015868FEF7ACFE60684FF0FF311430CB
:10401000FEF7A6FE2046FFF70FFD20463946FFF7C4
:10402000B7FD002084F88000BDE8F0810055010054
:1040300038B545680446002105F11800FEF790FEEA
:104040004FF0FF3105F11400FEF78AFE2046FFF71E
:10405000E8FA94F8493094F84A20002B14BF4FF442
:1040600040504FF4432040F480610AB940F40131DC
:1040700005F118000A46BDE83840FEF773BE00009F
:1040800070B5466806F11804054600212046FEF783
:1040900067FE06F114004FF0FF31FEF761FE28467F
:1040A000FFF7BFFA034920460A46BDE87040FEF715
:1040B00059BE00BF180820A34068024918300022EA
:1040C000FEF750BE280000072DE9F0410E78C568C4
:1040D000B31C074655F823800C4608F1080043F648
:1040E000FF71FEF73DFE97F8460028B397F847109A
:1040F00009B9062106E0A37803F0C000402814BFE8
:1041000002210321227F002A56D094F82030002B70
:1041100052D1A07800F0C003402B4DD000F008022F
:10412000D0B241F02001002846D0C02B41F480617C
:1041300042D041F010013FE0A1788A09012A01F044
:10414000080332D0032A19D013B140F28B5107E093
:10415000E07E40F2DB4140F2FB42002818BF1146EE
:1041600094F820303BB194F8210010B141F0500197
:1041700001E041F03001227FF2B113E040F29B6197
:1041800040F29B70002B18BF0146237F0BB141F01A
:10419000200194F820207AB194F8210010B141F068
:1041A000400109E041F0200106E040F2232140F205
:1041B000A332002B18BF114608F10C00FEF7D0FD0A
:1041C000286801221830002102FA06F2FEF7CAFD23
:1041D0007868002118304FF00072FEF7C3FD637855
:1041E0002268002163F39C51A378C2F3C33013F01B
:1041F000300FC3F3C00260F3CE2162F3CF3114BF9E
:104200000020012060F351419B09A288B01C63F398
:10421000934162F30A0155F82000FEF7A1FD94F8DE
:10422000203000217BB194F8212094F8240094F8E8
:10423000223062F3104160F38F3194F8232063F34E
:10424000CD1162F30601023655F826000430BDE8B0
:10425000F041FEF785BD2DE9F04717460A78C3689F
:104260000646901C0D2F0C4653F82050D6F80490AB
:10427000D3F800A001D00B2F14D105F10C000221BE
:10428000FEF76EFD6FF0020105F10800FEF768FD14
:10429000E7772846FEF762FD010E01F08003DAB2EF
:1042A000002A39D0A07FB8BB2846FEF757FD3168F9
:1042B000CB680BB940F0004096F8462040F08048AB
:1042C000DAB9A07810F0C00101D0802909D109F134
:1042D0002C00FEF743FDC0F3074070B960F3DF78B0
:1042E0000BE00AF11000FEF739FDC0F3074313B1EC
:1042F00096F84B200AB16FF3DF7828464146FEF767
:104300002FFDC8F3076101F08003DAB2E7770120DF
:104310000AB1A07700206077BDE8F08710B50023D0
:104320008B760978C268881C194652F8204004F13F
:104330000C00FEF715FD04F108004FF0FF31BDE859
:104340001040FEF70DBD827802F03003202B18D10B
:1043500002F00801CAB243794AB103F06002202A90
:1043600010D0402A01D1022205E0012203E003F02F
:104370006001202902D162F3C40305E043F0180371
:1043800002E043796FF3C4034371704770B50A7854
:10439000C368CE7E901C0C46897853F8205001F0FB
:1043A000C003002E14BF4FF000460026402B02D160
:1043B0002046FFF7C8FF627994F83410C2F3C100B9
:1043C0004B1E94F83C2060F35E7663F30F2662F395
:1043D000070605F110003146FEF7C2FCA06B002174
:1043E000C30A63F3DF2121F4FF6105F11400FEF736
:1043F000B7FC2846FEF7B2FC6279C2F3411161F3C3
:10440000155040F0004323F080412846FEF7A8FCF9
:1044100094F826200120511CA07684F8261070BD47
:1044200010B50A78C3680A49901C53F8204004F17B
:104430001000FEF795FC2046FEF790FC40F000418E
:1044400021F080412046BDE81040FEF789BC00BF46
:10445000000008802DE9F8430B788F888D680A6981
:1044600008330C46496950F82390C7F30A00561ADE
:1044700087B2B74228BF374607F1030815F0030695
:104480004FEA980801D0002610E0464506D055F8BE
:1044900026104846FEF764FC0136F6E76169A2681B
:1044A000C819D7196061A760BDE8F8834645F5D003
:1044B000AB6868681A0442EA00212868EB6841EAA0
:1044C000000242EA03614846FEF74AFC0136043521
:1044D000ECE7F7B591F8206005460C46002E46D172
:1044E0004B7903F01800182843D08B7803F00801AB
:1044F000C8B2C8B12078EF68831C57F823703846DB
:10450000FEF72CFC02A96A4641F8080D2846214610
:10451000FFF727F9009A42F0004166F39E71384692
:104520000091FEF71DFC1BE061692269914221D2D6
:1045300003F0C000C02801D040280DD12178EB68DD
:104540008A1C53F82200FEF709FC02AA214642F811
:10455000040D2846FFF705F928462146FFF77AFFA4
:1045600094F82600431C84F82630012002E0002045
:1045700000E03046FEBD2DE9F34103680A78C768C4
:104580009D6FD3F87CE0931CCA7E57F823800646C3
:104590000C4600274AB190F8463023B9FFF740FF98
:1045A0000121A176C4E04FF0004794F82000A278E2
:1045B00008B394F821502DB102F00802D0B208B926
:1045C000206113E0A17801F00803DDB22DB9A088C5
:1045D000226941054B0D934204D2A288C2F30A001E
:1045E00085B202E0BC2A01D9BC25256121690125DB
:1045F00061F312074BE002F0C003C02B01D0402B47
:104600000CD16179A088C1F34115C0F30A0120697A
:1046100011FB05F5A8420BD9256109E02169A942E2
:1046200006D9A088C0F30A01013588B22D1A256188
:1046300025698DB1A188C1F30A0189B2013D6D18C8
:10464000B5FBF1F51FFA8EF0ADB2854205D901FB3D
:1046500000F12161054600E0012502F00802D0B218
:1046600028B1A188C1F30A0290B268432061C02B2F
:1046700001D0402B08D16179402B65F3461161715F
:1046800002D12046FFF75FFE236963F312076379C7
:104690002583C3F3C10265F3DC4762F35E7708F15B
:1046A00010003946FEF75CFB96F8460030B1E16831
:1046B00001B9A16808F11400FEF752FB94F820102C
:1046C00049B108F104052846FEF748FB40F00041D7
:1046D0002846FEF745FB4046FEF740FB6379C3F3EF
:1046E000411262F3155002AA214642F8040D3046E9
:1046F000FFF737F8019840F000416FF39E71404694
:104700000191FEF72DFB94F8263001215A1CA17669
:1047100084F8262096F8460050B9A17801F00803E5
:10472000DAB22AB9206918B130462146FFF792FE65
:10473000BDE8FC8108B5836818680830FEF70EFBF9
:10474000C0F30D2008BD70B5054640680C30FEF77B
:1047500005FB064668684830FEF700FBEB68044638
:104760005868FEF7FBFAF1B201F0400202F0FF05D3
:104770000AB93C2304E0C4F30123032BF9D130230D
:1047800048F258023240082A06D03AB148F20806E8
:10479000B24208BF302302E01E2300E03C2301F0B8
:1047A0004801402904D1C4F30122022A08BF302362
:1047B00025B1C4F30124012C08BF3023C0F3074006
:1047C00000F0060109B97D2001E04FF47A705843EA
:1047D00070BD38B50546006A0C46FEF7BFFA20608A
:1047E000286AFEF7BBFA606038BDF8B584682068B7
:1047F0000830FEF7B3FA07466068FEF7AFFA0546E1
:10480000606AFEF7ABFAC7F34107022F064602D0F3
:104810006FF30A0502E0032363F30A056068294683
:10482000FEF79EFA606A46F00041FEF799FA2068AA
:104830004FF4807104300A46BDE8F840FEF792BAA2
:104840002DE9F0414B78856880460878002613F002
:10485000010F0C4605EB800206D05768012202FAD0
:1048600000F060F30F0605E0012101FA00F3576A3A
:1048700063F31F463846FEF771FAC0F3072101F0D3
:104880008003DAB29AB96188C1F38A03617863F36D
:104890000A008A09C1F3830362F3934063F39950DA
:1048A00040F0805141F400413846FEF759FA98F83B
:1048B0004910A9B1607822782B6810F0010F05D05B
:1048C000103203EB820040F22F1103E0183203EBA9
:1048D00082000721FEF744FA286800213C3001E0FD
:1048E00028681C303246FEF73DFA94F826106FF324
:1048F000C30184F82610BDE8F081F8B504464B7872
:104900000878A268002613F0010F0D4602EB800123
:1049100006D001224F6802FA00F161F30F0605E0AC
:10492000012303FA00F04F6A60F31F463846FEF792
:1049300015FA6B780146D80794F847006FF3CF312A
:1049400048BF6FF3995108B141F080413846FEF7F6
:1049500007FAA16894F849200868C2B13C300022E7
:104960003146FEF7FFF96A782878A36812F0010152
:1049700005D01968103001EB8000002103E01A68AF
:10498000183002EB8000BDE8F840FEF7E9B91C30B2
:104990003146BDE8F840FEF7E5B92DE9F0414B7826
:1049A0000A780546806813F0010F0C4600EB82017F
:1049B00000F0868068684E682C30FEF7CFF995F8D5
:1049C0004A1021B9C0F30742002A00F0DE803046C9
:1049D000FEF7C4F9804606F11000FEF7BFF9E26960
:1049E000676A0146C7F31203C2F312001F1A636815
:1049F0009F4294BFC019C01820F07F4727F4780366
:104A000063F31202E261226AC2F31200834205D10B
:104A10006FF31201012262F3DC410BE01F1A63887D
:104A2000781EC3F38A0267F31201871897FBF2F32B
:104A300063F3DC4195F846709FB195F847203AB989
:104A400006F11000FEF78CF906F11400A16805E0EC
:104A50002046FEF727FEE16806F11400FEF780F914
:104A60001EE006F11000FEF77BF9617801F0C0004E
:104A7000402815D095F84A3023B9686820211830AD
:104A80000A460BE0E269C2F3120149B1A868237833
:104A9000006801223430394602FA03F2FEF762F967
:104AA000304648F00441FEF75BF9A9684868FEF714
:104AB00055F9AB680146207860F3CE21586860E074
:104AC0004E6A3046FEF74AF9804606F11000FEF7BE
:104AD00045F9E269676AB4F802E0C2F312030146DD
:104AE000C7F31200C71A6068874294BFDB191B180E
:104AF000206A23F07F4727F47807C0F3120367F397
:104B000012029F42E261CEF38A0E05D16EF31201CA
:104B1000012262F3DC4118E01FFA8EFCFF1A0CF14F
:104B2000FF30381890FBFCF08005800D60F3DC410D
:104B30001EFB00F0C01860F31202E26120F07F4219
:104B400022F47800C31A63F3120195F8460088B185
:104B500095F847303BB906F11000FEF701F906F170
:104B60001400A16808E02046FEF79CFD06F1140041
:104B7000E16801E006F11000FEF7F2F8304648F077
:104B80000441BDE8F041FEF7EBB8BDE8F0812DE946
:104B9000F0474B780A780446806813F0010F0D4601
:104BA00000EB820149D04E683046FEF7D7F806F197
:104BB000100782463846FEF7D1F894F84690014631
:104BC0006FF312014FF0010868F3DC41B9F1000FF7
:104BD0000BD094F8473003BB3846FEF7C1F806F116
:104BE0001400A968FEF7BCF817E03846FEF7B8F8DD
:104BF00094F84A1021B96068202118300A460AE06A
:104C0000EA69C2F3120343B1A0682A7800684946F2
:104C1000343008FA02F2FEF7A5F830464AF00441B3
:104C2000FEF79EF8A1684868FEF798F8A26801466A
:104C3000287860F3CE21506825E04E6A3046FEF7B2
:104C40008DF806F1100780463846FEF787F86B8826
:104C50000146C3F38A0094F8463060F31201012242
:104C600062F3DC414BB194F8470048B93846FEF78F
:104C700077F806F11400A96800E03846FEF770F8EE
:104C8000304648F00441BDE8F047FEF769B82DE929
:104C9000F743CB6991F826200C460546C3F3120072
:104CA0008884637822F0070141EA104684F8266080
:104CB00013F00109A86800F09280466868682C30FB
:104CC000FEF74CF895F84A2022B9C0F30743002BB1
:104CD00000F0D1803046FEF741F8074606F110009B
:104CE000FEF73CF80090E06920F07F4131F4780253
:104CF00010D06388C0F31202C3F38A018A4209DD2F
:104D000061F31200E0619DF8000061F306008DF888
:104D1000000005E09DF8003062F306038DF80030D6
:104D20009DF8021095F84600012262F3C4018DF847
:104D3000021068B395F8473043B906F110000099A6
:104D4000FEF70EF806F11400A16824E0A968D1F876
:104D5000AC00C27842F0CA03C370E1696388C1F352
:104D60001202C3F38A01531AC27818BF012363F3F6
:104D70008202C270A18BC27801806FF38712A36890
:104D8000C270A9684360D1F8A81006F1140002E0CF
:104D9000009906F11000FDF7E3FF47F004413046AB
:104DA000FDF7DEFF95F84610002964D195F84A001A
:104DB00020B96868202118300A460BE0E369C3F384
:104DC0001202002A57D0A8682378006801223430E4
:104DD00002FA03F203B0BDE8F043FDF7C3BF466A31
:104DE0003046FDF7BBFF06F1100780463846FDF759
:104DF000B5FF628800909DF800109DF80200C2F394
:104E00008A0363F306018DF80010012295F846101D
:104E100062F3C4008DF8020009B395F847303BB93E
:104E200038460099FDF79CFF06F11400A16818E0D0
:104E3000A868D0F8B410CA7842F0CA03CB70608872
:104E4000C0F38A02C8780A80A36869F38710C87023
:104E50004B60A96806F11400D1F8B01001E0009988
:104E60003846FDF77DFF304648F0044103B0BDE809
:104E7000F043FDF775BF03B0BDE8F0832DE9F743BC
:104E80004B7813F0010905460C46806800F09880C5
:104E900046683046FDF762FF074606F11000FDF751
:104EA0005DFF626A216A009095F84700C2F3120222
:104EB000C1F31203D21A30BB6088C0F38A039A424E
:104EC000A8BF1A469DF800009DF8023002F07F024C
:104ED000D1B261F306008DF80000012060F3C40335
:104EE00095F846008DF80230E36928B9C3F3120142
:104EF0008A1862F3120301E061F31203E36106F121
:104F0000100000992AE06088E369C0F38A018A42B0
:104F1000A8BF0A4662F31203E361AA68D2F8AC00A4
:104F2000C17841F0CA03C370E2696188C2F3120319
:104F3000C1F38A029B1AC17818BF012363F382016F
:104F4000C170A28BC17802806FF38711A368C17012
:104F5000AA684360D2F8A81006F11400FDF700FF1C
:104F600095F8500000F01803102B07D195F8471062
:104F700021B906F11400A168FDF7F2FE47F00441E3
:104F80003046FDF7EDFE95F84610002967D195F8FB
:104F90004A2022B96868202118300A460BE0E069EF
:104FA000C0F31203002B5AD0AA682378106801229C
:104FB000343002FA03F203B0BDE8F043FDF7D2BE8D
:104FC000466A3046FDF7CAFE06F1100780463846AD
:104FD000FDF7C4FE628800909DF800109DF8020065
:104FE000C2F38A0363F306018DF80010012295F8DD
:104FF000471062F3C4008DF8020011B938460099D9
:1050000015E0AB68D3F8B400C27842F0CA01C170B1
:105010006388C3F38A02C378028069F38713A168A7
:10502000C370AA684160D2F8B01006F11400FDF711
:1050300097FE95F8500000F01801102907D195F857
:10504000473023B906F11400A168FDF789FE304608
:1050500048F0044103B0BDE8F043FDF781BE03B062
:10506000BDE8F0832DE9F8430C460B6AE5698F69CA
:10507000C5F31205C3F31201A94228DA63886D1A39
:10508000C3F38A01237808338D42A8BF0D4650F838
:10509000238072B1206AA369C0F31202A918A26822
:1050A00061F31200206258195519A061A560BDE88E
:1050B000F88305F103094FEA990916464E45E9D0F0
:1050C00057F826104046FDF74BFE0136F6E7BDE8DF
:1050D000F88310B54B7880680A7813F0010F00EB65
:1050E000820110D04C682046FDF738FEC0F30763FC
:1050F000014603F08000C2B20AB141F0804120466F
:1051000041F4001106E04C6A2046FDF727FE40F40A
:1051100000112046BDE81040FDF722BE38B580687A
:105120000A784B780D4600EB820113F0010F14BF93
:105130004C684C6A2046FDF711FE6B78014603F07F
:10514000C000C0286FF3555101D0802801D141F033
:1051500080512046BDE83840FDF702BEF8B5033265
:10516000066A0D4697100024BC4206DA3046FDF769
:10517000F5FD45F824000134F6E7F8BD70477047A7
:105180007047704737B5002301934568019840F098
:1051900020020192019C61F38A140194019905F1A6
:1051A0001000FDF7DDFD42F2117405F11000FDF76E
:1051B000D5FD013C019003D10120FDF7F6FD3EBD78
:1051C0000120FDF7F2FD01998B06EED4F4E737B527
:1051D000002301934568019840F010010191019965
:1051E00005F11000FDF7BCFD42F2117405F110004D
:1051F000FDF7B4FD013C019003D10120FDF7D5FD81
:105200003EBD0120FDF7D1FD019AD206EED4F4E7B0
:105210002DE9F84F002104464668C5680768C06953
:10522000FDF79EFD2046FEF7D9F92368586901284D
:1052300007D12868FDF792FD40F004012868FDF7CA
:105240008FFD2168D1F80821012A09D12B68181D8A
:10525000FDF784FD40F4803128680430FDF780FDBF
:105260002168CA68FAB194F85B1094F8503001F0E4
:10527000400203F00700D3B2002B00F0C680226981
:1052800063498A4240F2C180022804D9052802D02D
:10529000062840F0BA802868FDF760FD40F4000160
:1052A0002868FDF75DFD94F8520000F00803DAB2BB
:1052B000002A3ED0396A00293BD006F1240948462D
:1052C000F96EFDF74DFDB7F870A0B7F86CB000218E
:1052D00006F128086AF31F416BF30F014046FDF702
:1052E0003FFD7F6F00210BEB0A0067F31F4106F5BE
:1052F000807760F30F0106F15C0B3846FDF730FD57
:105300005846FDF72BFD82464846FDF727FD8146AE
:105310004046FDF723FD80463846FDF71FFD030C90
:1053200003EB1848C14469F31F4A58465146FDF73C
:1053300017FD002230464FF48061FDF713FD102168
:105340002046FFF71FFF2046FFF741FF30460022AF
:105350004FF48061FDF706FD2268D66826B194F807
:10536000641001294CD13CE0D2F880904E4511DA0E
:10537000B31CE76857F823703846FDF7EFFC20F0C0
:10538000404040F0804121F400413846FDF7E8FC00
:105390000136EBE700264E45E1DAB21CE76857F824
:1053A00022703846FDF7DAFC40F0404323F4004118
:1053B0003846FDF7D5FC40F2E9383846FDF7CEFC1B
:1053C000B8F10108824601D10136E4E70120FDF77A
:1053D000ECFCCAF3076000F08001CAB2002AECD1ED
:1053E000F2E72046FEF7F2F80246C0F3072000F08D
:1053F0001003D9B221B9686842F48051FDF7B0FCBE
:105400002046BDE8F84FFEF73BBEBDE8F88F00BF71
:105410000929544F2DE9F84F4FF0000804468568DC
:1054200047680668C0694146FDF79AFC2046FEF7CA
:1054300014F92868FDF792FC94F847300146B3EB65
:10544000080018BF012060F3D75121F4C05128682B
:10545000FDF786FC94F8522002F00801CBB2A3BB02
:1054600007F15C094846FDF779FC804607F14C00DE
:10547000FDF774FC000C60F30F0841464846FDF749
:105480006FFC07F12400FDF769FC824607F1280054
:10549000FDF764FC0AEB104767F31F484846414696
:1054A000FDF75EFC10212046FFF76CFE2046FFF75B
:1054B0008EFE606808211030FDF752FC94F84970A8
:1054C000002F00F08E80002763E0306A0028C7D0EC
:1054D00007F12400B16AFDF743FCF26AB36A94F85D
:1054E0004AB0C4F870801FFA82F9002169F31F41A5
:1054F0001FFA83FAC4F874806AF30F0107F12800D9
:10550000BBF1000F22D1FDF72BFC0AEB09024FF093
:10551000000962F30F09D84694F8583003F00F01E0
:1055200088459DDA06EB880107EB8802B1F830A0C8
:105530006AF31F4902F582704946FDF711FC0AEB38
:10554000090060F30F0908F10108E5E7FDF708FC21
:105550000AEB09014FF0000961F30F0994F85B00B1
:10556000C0F383029045BFF67BAF06EB880307EBE1
:105570008801B3F8A8A06AF31F4901F58270494673
:10558000FDF7EEFB0AEB090060F30F0908F10108D3
:10559000E4E7A26892F845309F4209DA2B6807F1E8
:1055A000100003EB80000021FDF7DAFB0137F0E784
:1055B0000027A16891F846008742286808DA07F1B9
:1055C000180200EB82000021FDF7CAFB0137F0E76B
:1055D00038304FF0FF31FDF7C3FB286800213C3025
:1055E00012E0286839461030FDF7BAFB28683946C2
:1055F0001430FDF7B5FB28684FF0FF311830FDF788
:10560000AFFB286839461C30FDF7AAFB4FF00008B5
:10561000C14695F84570B94524DC05EB080709F14A
:1056200001097868FDF79AFB000E00F08003D9B2FB
:105630007868002914BF4FF090410021FDF790FBDE
:10564000786800211030FDF78BFB7868002114305A
:10565000FDF786FB7868FF210830FDF781FB08F134
:105660000408D6E72F464FF0000895F846209045ED
:1056700021DC786AFDF772FB030E03F08001CAB2E9
:10568000002A14BF4FF090410021786AFDF768FBB3
:10569000786A00211030FDF763FB786A002114302E
:1056A000FDF75EFB786AFF210830FDF759FB08F132
:1056B00001080437D9E794F84A306BB394F84610E0
:1056C00051B3D6F8E400B6F8EC2000F0010E00214A
:1056D000C0F38003C0F34007B6F8E800C5F8A41093
:1056E0006EF3000167F3410160F38A0163F3104137
:1056F000A5F88430A5F88C00D6F800312868A5F804
:1057000088E062F35941A5F88670A5F88A2063F312
:10571000CC213030FDF724FB2046FEF789FC94F8BD
:105720004910286809B1403000E010304FF4807112
:105730000A46FDF717FB94F8492042B1286800217A
:1057400004304FF48032BDE8F84FFDF70BBBBDE8E5
:10575000F88F000073B500234568164C01930A20AA
:1057600005F11006FDF721FB3046FDF7F7FA013C85
:1057700001901ED001980028F1DA019941F0010250
:10578000019201993046FDF7EBFA42F2117405F1EE
:105790001000FDF7E3FA013C019003D16420FDF70E
:1057A00015FB06E00120FDF700FB019BD907EED4B5
:1057B000F4E77CBDA1860100406808B51430FDF710
:1057C000CDFA00F0010080F0010008BD406808B586
:1057D0001430FDF7C3FA00F0010008BD2DE9F843CD
:1057E0004568D0F80890044605F10C084046FDF7DE
:1057F000B5FA2368D3F89420D3F8A0300027511EBF
:105800000646484250EB0102591E484262F31456C4
:1058100050EB010262F3965631464046FDF7A0FA7E
:105820002046FFF797FFA36819682368486840F08F
:1058300002024A60D3F80C01D3F80411E26C94F828
:105840005B3094F851E0C4F89410C4F89000D1088B
:10585000C3F38300CEF3830C3A463B46624506D23F
:1058600011F0010F08BF013389080132F6E794F8FF
:105870005B1001F00202D1B211B1834228BF03468E
:1058800089F84530E36C94F8510099080023C0F37F
:1058900083001A46834206D211F0010F08BF01327D
:1058A00089080133F6E789F846204FF0000894F89C
:1058B000582002F00F0188450DDA05EB880202F549
:1058C0008270FDF74BFA09EB4803000CA3F848007F
:1058D00008F10108EBE74FF0000894F85B00C0F313
:1058E000830398450DDA05EB880000F58270FDF71B
:1058F00035FA09EB4803010CA3F8661008F101081A
:10590000EBE7B4F8562005F12400A4F84020FDF799
:1059100025FAA4F8420005F12800FDF71FFA2268D5
:10592000237D010CA4F844105169012947D1D2F814
:105930008800002843D16BB905F10C06217530466B
:10594000FDF70CFA40F040013046FDF709FA204619
:10595000FFF700FFA1680868426842F00203436055
:105960002046FFF733FF18B12046FDF737FE02E06F
:105970002046FDF772FE2668D6F89810002942D01E
:1059800005F10C063046FDF7E9F905F1300840F461
:1059900080313046FDF7E4F94046FDF7DFF9064671
:1059A000012060F39B666FF3D75640463146FDF702
:1059B000D7F9404646F40001FDF7D2F923E013BBC6
:1059C00001212175D2F88800022808D146F010067E
:1059D00063F3C306D2F8903063F3C7160BE00128D7
:1059E00009D1D2F88C2063F30416102A0CBF46F0BC
:1059F000080663F3C30605F10C003146FDF7B0F964
:105A00002046FFF7A7FEB4F8502002F4707305F1AA
:105A10000C06B3F5C07F304609D12168D1F89C202F
:105A20002AB1FDF79BF940F42021304607E0FDF74D
:105A300095F903466FF35143304623F40021FDF7F7
:105A40008FF994F85000C0F3C101CAB2012A0BD0FB
:105A5000022A17D032BB62F3C71762F3082784F813
:105A6000461084F847101DE02368197C0022501C62
:105A7000012900F00F0002D949080246F7E762F356
:105A8000440703E0012363F34407236899680A1C71
:105A900018BF012284F84620DB68181C18BF0120BB
:105AA00084F8470094F8461009B984F8471061F368
:105AB000451705F108003946FDF752F994F85B20C7
:105AC0002068C2F3400384F84A30D0F8F4100A1C6E
:105AD00018BF012284F84820D0F8F83005F10C00F6
