:020000040C00EE
:1000000000080010010200082F5200083F520008AB
:100010004F5200085F5200086F52000800000000B5
:100020000000000000000000000000007F520008F7
:100030008F520008000000009F520008AF520008D5
:10004000BF520008CF520008DF520008EF520008EC
:10005000FF5200080F5300081F5300082F530008D9
:100060003F530008000000000000000000000000F6
:100070004F530008000000005F5300086F53000852
:100080007F5300088F5300089F530008AF530008A8
:10009000BF530008CF530008DF530008EF53000898
:1000A000FF5300080F5400081F5400082F54000885
:1000B0003F5400084F5400085F5400086F54000874
:1000C0007F5400088F5400089F540008AF54000864
:1000D000BF540008CF540008DF540008EF54000854
:1000E000FF5400080F5500081F5500082F55000841
:1000F0003F5500084F5500085F5500086F55000830
:100100007F5500088D5500089B550008A95500082B
:10011000B7550008C5550008D3550008E15500083B
:10012000EF550008FD5500080B5600081956000849
:100130002756000835560008435600085156000857
:100140005F5600086D5600087B5600088956000867
:1001500097560008A5560008B3560008C156000877
:10016000000000000000000000000000000000008F
:10017000CF560008DD560008EB560008F956000877
:100180000757000815570008235700083157000883
:100190003F5700084D5700085B5700086957000893
:1001A000775700088557000893570008A1570008A3
:1001B000AF570008BD570008CB570008D9570008B3
:1001C000E7570008F55700080358000811580008C1
:1001D0001F5800082D5800083B5800080000000078
:1001E0004958000857580008655800087358000817
:1001F00081580008000000008F580008000000002F
:10020000DFF80CD0034880470348804700F017B858
:1002100000080010595A0008F5510108002A00F0A2
:100220000D804FEA920203680B60013A00F00680ED
:1002300000F1040001F10401FFF7F5BF7047144815
:100240001449154AFFF7EAFF14481549154AFFF704
:10025000E5FF15481549002900F00C804FEA91018F
:100260004FF000020260013900F0048000F1040048
:10027000FFF7F8BF0E480F4908600F488047DFF8C6
:100280003CD04FF000004FF00001DFF834F00000E8
:100290002018020C0000002088090000A821020C90
:1002A0000008001000000000900B00203C0D000032
:1002B0000000000808ED00E061A10108000800103E
:1002C0009968000800BF704780B588B000AF7860BB
:1002D000F970BA707B704FF004037B72FB783B724D
:1002E0004FF00103FB6119E0FA6948F6AD33C6F639
:1002F000DB0383FB02134FEAE3214FEAE273CB1ADD
:1003000041F2883101FB03F3D31A002B02D14FF0E5
:100310000003AEE0FB6903F10103FB6107F1080391
:100320007868194614F09CFC034683F00103DBB2A5
:10033000002BD9D14FF000037B72BB783B724FF09A
:100340000103BB6119E0BA6948F6AD33C6F6DB03B9
:1003500083FB02134FEAE3214FEAE273CB1A41F227
:10036000883101FB03F3D31A002B02D14FF00003B5
:100370007FE0BB6903F10103BB6107F10803786803
:10038000194614F06DFC034683F00103DBB2002B29
:10039000D9D14FF000037B6135E04FF000037B7251
:1003A0007B69BA6AD3181B783B724FF001033B613B
:1003B00019E03A6948F6AD33C6F6DB0383FB021356
:1003C0004FEAE3214FEAE273CB1A41F2883101FB95
:1003D00003F3D31A002B02D14FF0000349E03B692D
:1003E00003F101033B6107F108037868194614F033
:1003F00037FC034683F00103DBB2002BD9D17B69C4
:1004000003F101037B617A787B699A42C5DC4FF086
:1004100006037B724FF0FF033B724FF00103FB605A
:1004200019E0FA6848F6AD33C6F6DB0383FB021326
:100430004FEAE3214FEAE273CB1A41F2883101FB24
:1004400003F3D31A002B02D14FF0000311E0FB6835
:1004500003F10103FB6007F108037868194614F003
:10046000FFFB034683F00103DBB2002BD9D14FF031
:100470000103184607F12007BD4680BD80B584B052
:1004800002AF7860F970BA707B70FA78BB7807F1C8
:1004900001010091786811461A464FF00103FFF7F9
:1004A00013FF0346184607F10807BD4680BD00BF8D
:1004B00080B58CB000AF7860F970BA707B704FF087
:1004C0000003FB814FF00003FB854FF004037B74B6
:1004D000FB783B744FF00103BB6219E0BA6A48F63F
:1004E000AD33C6F6DB0383FB02134FEAE3214FEA89
:1004F000E273CB1A41F2883101FB03F3D31A002BCC
:1005000002D14FF0000327E1BB6A03F10103BB6294
:1005100007F110037868194614F0A2FB034683F034
:100520000103DBB2002BD9D14FF000037B74BB7801
:100530003B744FF001037B6219E07A6A48F6AD33F1
:10054000C6F6DB0383FB02134FEAE3214FEAE273B3
:10055000CB1A41F2883101FB03F3D31A002B02D1ED
:100560004FF00003F8E07B6A03F101037B6207F1BF
:1005700010037868194614F073FB034683F00103F7
:10058000DBB2002BD9D14FF005037B74FB7843F02D
:100590000103DBB23B744FF001033B6219E03A6A9E
:1005A00048F6AD33C6F6DB0383FB02134FEAE321C3
:1005B0004FEAE273CB1A41F2883101FB03F3D31AFD
:1005C000002B02D14FF00003C6E03B6A03F10103A8
:1005D0003B6207F110037868194614F041FB0346AB
:1005E00083F00103DBB2002BD9D14FF00003FB8570
:1005F0003EE0B7F92E207B7803F1FF339A4203DA0D
:100600004FF002037B7402E04FF003037B744FF062
:10061000FF033B744FF00103FB6119E0FA6948F6F0
:10062000AD33C6F6DB0383FB02134FEAE3214FEA47
:10063000E273CB1A41F2883101FB03F3D31A002B8A
:1006400002D14FF0000387E0FB6903F10103FB6176
:1006500007F110037868194614F002FB034683F093
:100660000103DBB2002BD9D1FB8D03F10103FB8524
:10067000B7F92E207B789A42BBDB4FF006037B74E0
:100680004FF0FF033B744FF00103BB6119E0BA69FF
:1006900048F6AD33C6F6DB0383FB02134FEAE321D2
:1006A0004FEAE273CB1A41F2883101FB03F3D31A0C
:1006B000002B02D14FF000034EE0BB6903F10103B0
:1006C000BB6107F110037868194614F0C9FA0346B4
:1006D00083F00103DBB2002BD9D14FF00003FB857F
:1006E00034E04FF001037B6119E07A6948F6AD33DD
:1006F000C6F6DB0383FB02134FEAE3214FEAE27302
:10070000CB1A41F2883101FB03F3D31A002B02D13B
:100710004FF0000320E07B6903F101037B6107F1E7
:100720000E037868194614F071FA034683F001034A
:10073000DBB2002BD9D1B7F92E30BA6BD318FA89B6
:10074000D2B21A70FB8D03F10103FB85B7F92E209D
:100750007B789A42C5DBFB8D1BB2184607F1300748
:10076000BD4680BD80B586B002AF786013460A46AC
:10077000FA70BB704FF00003FB73FA78BB7807F197
:100780000F010091786811461A464FF00103FFF7F8
:100790008FFE0346002B01D0FB7B01E04FF6FF7379
:1007A0001BB2184607F11007BD4680BD80B400AFEC
:1007B00041F24C33C0F602035B684FF002029A66C6
:1007C00041F24C33C0F602035B684FF40042C3F8B9
:1007D000182141F24C33C0F602035A6841F24C33FF
:1007E000C0F602035B68DB6C43F02003D364BD46B4
:1007F00080BC704780B400AF41F26433C0F602039E
:100800005B684FF002029A6641F26433C0F602035D
:100810005B684FF40042C3F8182141F26433C0F61C
:1008200002035A6841F26433C0F602035B68DB6C72
:1008300043F02003D364BD4680BC704780B400AF52
:1008400040F69033C2F200031B6803F1010240F648
:100850009033C2F200031A60BD4680BC704700BFEF
:1008600080B485B000AF786040F69033C2F20003E8
:100870001B68FB6000BFFA687B68D21840F69033B3
:10088000C2F200031B689A42F5D807F11407BD466F
:1008900080BC704780B400AF40F69033C2F20003D2
:1008A0001B681846BD4680BC704700BF80B483B04B
:1008B00000AF0346FB714FF46143CEF2000397F99A
:1008C00007204FEA5212F97901F01F014FF00100A1
:1008D00000FA01F143F8221007F10C07BD4680BC75
:1008E000704700BF80B582B000AF78607B681B782E
:1008F000DBB25BB21846FFF7D9FF07F10807BD4628
:1009000080BD00BF80B582B000AF41F24C30C0F670
:1009100002004FF0D0014FF07502FFF723FF0346AE
:10092000FB71FB79682B02D0FB79712B12D100F09F
:1009300017FE0346002B0DD000F088FA4FF47A70B2
:10094000FFF78EFF00F00AF841F27C20C0F60200AB
:10095000FFF7C8FF07F10807BD4680BD80B582B02C
:1009600000AF41F24C30C0F602004FF0D0014FF022
:100970006B024FF00003FFF781FD4FF06400FFF7BB
:100980006FFF41F24C30C0F602004FF0D0014FF043
:100990006B024FF00103FFF771FD4FF0C800FFF746
:1009A0005FFF41F24C30C0F602004FF0D0014FF033
:1009B0001A024FF00103FFF761FD41F24C30C0F61F
:1009C00002004FF0D0014FF019024FF00103FFF782
:1009D00055FD41F24C30C0F602004FF0D0014FF00F
:1009E0001B02FFF7BFFE0346FB71FB7903F01F03F9
:1009F000DBB241F24C30C0F602004FF0D0014FF0B4
:100A00001B02FFF73BFDFB7923F01803DBB241F239
:100A10004C30C0F602004FF0D0014FF01B02FFF740
:100A20002DFD40F69433C2F200031B784FEAC30356
:100A3000DAB2FB791343DBB2DBB241F24C30C0F6E1
:100A400002004FF0D0014FF01B02FFF717FD41F2FB
:100A50004C30C0F602004FF0D0014FF01C02FFF7FF
:100A600081FE0346FB71FB7903F01F03DBB241F209
:100A70004C30C0F602004FF0D0014FF01C02FFF7DF
:100A8000FDFCFB7923F01803DBB241F24C30C0F6D9
:100A900002004FF0D0014FF01C02FFF7EFFC40F6D0
:100AA0009533C2F200031B784FEAC303DAB2FB7935
:100AB0001343DBB2DBB241F24C30C0F602004FF020
:100AC000D0014FF01C02FFF7D9FC41F24C30C0F6C8
:100AD00002004FF0D0014FF038024FF00003FFF753
:100AE000CDFC41F24C30C0F602004FF0D0014FF087
:100AF00023024FF00003FFF7C1FC41F24C30C0F677
:100B000002004FF0D0014FF06A024FF00203FFF7EE
:100B1000B5FC41F24C30C0F602004FF0D0014FF06E
:100B20006A024FF00003FFF7A9FC41F24C30C0F617
:100B300002004FF0D0014FF037024FF00203FFF7F1
:100B40009DFC4FF06400FFF78BFE41F24C30C0F685
:100B500002004FF018014FF00002FFF703FE0346BA
:100B6000FB71FB79482B05D140F6BC30C2F2000086
:100B700000F0ACF841F24C30C0F602004FF0D0016A
:100B80004FF023024FF07903FFF778FC41F24C302D
:100B9000C0F602004FF0D0014FF024024FF05D0389
:100BA000FFF76CFC41F24C30C0F602004FF0D00170
:100BB0004FF025024FF08C03FFF760FC41F24C3000
:100BC000C0F602004FF0D0014FF026024FF00203B2
:100BD000FFF754FC41F24C30C0F602004FF0D00158
:100BE0004FF027024FF0D703FFF748FC41F24C309B
:100BF000C0F602004FF0D0014FF028024FF00C0376
:100C0000FFF73CFC41F24C30C0F602004FF0D0013F
:100C10004FF029024FF00A03FFF730FC41F24C304D
:100C2000C0F602004FF0D0014FF064024FF0010314
:100C3000FFF724FC41F24C30C0F602004FF0D00127
:100C40004FF02A024FF08103FFF718FC41F24C30BD
:100C5000C0F602004FF0D0014FF034024FF0040311
:100C6000FFF70CFC41F24C30C0F602004FF0D0010F
:100C70004FF037024FF00003FFF700FC41F24C3019
:100C8000C0F602004FF0D0014FF038024FF01103D0
:100C9000FFF7F4FB41F24C30C0F602004FF0D001F8
:100CA0004FF067024FF08303FFF7E8FB41F24C304F
:100CB000C0F602004FF0D0014FF06A024FF064031B
:100CC000FFF7DCFB07F10807BD4680BD90B587B094
:100CD00002AF786041F24C30C0F602004FF01801CC
:100CE0004FF00A024FF00003FFF7C8FB4FF00A0075
:100CF000FFF7B6FD41F24C30C0F602004FF018018C
:100D00004FF00A024FF00F03FFF7B8FB4FF00A0055
:100D1000FFF7A6FD07F10C03009341F24C30C0F63B
:100D200002004FF018014FF010024FF00303FFF7DD
:100D3000BFFB3B7BA3F1800307EE103AF8EEC77AC6
:100D400017EE900A18F0A0FE02460B461046194610
:100D50004FF000024FF00003C4F2700319F012F8D4
:100D600002460B46104619464FF000024FF00003B2
:100D7000C3F6F07318F02AFD02460B4610461946DA
:100D800019F098F902467B681A607B6803F1040445
:100D90007B7BA3F1800307EE103AF8EEC77A17EEDB
:100DA000900A18F071FE02460B46104619464FF0A5
:100DB00000024FF00003C4F2700318F0E3FF024694
:100DC0000B46104619464FF000024FF00003C3F6E1
:100DD000F07318F0FBFC02460B461046194619F05A
:100DE00069F9034623607B6803F10804BB7BA3F128
:100DF000800307EE103AF8EEC77A17EE900A18F063
:100E000043FE02460B46104619464FF000024FF0D3
:100E10000003C4F2700318F0B5FF02460B461046FB
:100E200019464FF000024FF00003C3F6F07318F0BC
:100E3000CDFC02460B461046194619F03BF9034615
:100E4000236007F11407BD4690BD00BF80B596B082
:100E500002AF4FF00003FB624FF000033B634FF023
:100E600000037B634FF000033B624FF000037B62A3
:100E70004FF00003BB6241F24C30C0F602004FF06D
:100E8000D0014FF06B024FF08003FFF7F7FA4FF0FD
:100E90006400FFF7E5FC41F24C30C0F602004FF071
:100EA000D0014FF06B024FF00103FFF7E7FA41F278
:100EB0004C30C0F602004FF0D0014FF06C024FF002
:100EC0000003FFF7DBFA4FF0C800FFF7C9FC41F25F
:100ED0004C30C0F602004FF0D0014FF038024FF016
:100EE0000003FFF7CBFA41F24C30C0F602004FF09E
:100EF000D0014FF023024FF00003FFF7BFFA41F299
:100F00004C30C0F602004FF0D0014FF06B024FF0B2
:100F10000003FFF7B3FA41F24C30C0F602004FF085
:100F2000D0014FF024024FF00003FFF7A7FA41F27F
:100F30004C30C0F602004FF0D0014FF06A024FF083
:100F40000003FFF79BFA41F24C30C0F602004FF06D
:100F5000D0014FF06A024FF00C03FFF78FFA4FF009
:100F60000F00FFF77DFC41F24C30C0F602004FF05D
:100F7000D0014FF01A024FF00103FFF77FFA41F260
:100F80004C30C0F602004FF0D0014FF019024FF084
:100F90000003FFF773FA41F24C30C0F602004FF045
:100FA000D0014FF01B024FF00003FFF767FA41F248
:100FB0004C30C0F602004FF0D0014FF01C024FF051
:100FC0000003FFF75BFA4FF48043A7F84C3041F27F
:100FD0004C30C0F602004FF0D0014FF06A024FF0E3
:100FE0004003FFF74BFA41F24C30C0F602004FF0DD
:100FF000D0014FF023024FF07803FFF73FFA4FF094
:101000005000FFF72DFC41F24C30C0F602004FF0CB
:10101000D0014FF023024FF00003FFF72FFA07F142
:101020003803009341F24C30C0F602004FF0D0017B
:101030004FF072024FF00203FFF73AFA97F8383098
:101040004FEA03239AB297F8393013439BB2A7F8BB
:101050004A30B7F84A204AF6AB23CAF6AA23A3FBC4
:1010600002134FEAD303A7F848304FF00003A7F864
:101070004E3080E04FF000033B814FF000037B8156
:101080004FF00003BB814FF000033B804FF00003A3
:101090007B804FF00003BB8007F13803009341F2DF
:1010A0004C30C0F602004FF0D0014FF074024FF008
:1010B0000C03FFF7FDF997F838304FEA03239AB293
:1010C00097F8393013439BB23B8197F83A304FEA97
:1010D00003239AB297F83B3013439BB27B8197F876
:1010E0003C304FEA03239AB297F83D3013439BB24A
:1010F000BB8197F83E304FEA03239AB297F83F300E
:1011000013439BB23B8097F840304FEA03239AB2D7
:1011100097F8413013439BB27B8097F842304FEAF7
:1011200003239AB297F8433013439BB2BB803A6AC9
:101130003B891BB2D3183B627A6A7B891BB2D318F6
:101140007B62BA6ABB891BB2D318BB62FA6A3B885E
:101150001BB2D318FB623A6B7B881BB2D3183B637C
:101160007A6BBB881BB2D3187B63B7F84E3003F1A0
:101170000103A7F84E30B7F84E20B7F848309A422E
:10118000FFF478AF3A6AB7F8483092FBF3F33B626A
:101190007A6AB7F8483092FBF3F37B62BA6AB7F821
:1011A000483092FBF3F3BB62FA6AB7F8483092FB1F
:1011B000F3F3FB623A6BB7F8483092FBF3F33B630F
:1011C0007A6BB7F8483092FBF3F37B63BB6A002B72
:1011D00005DDBA6AB7F84C30D31ABB6204E0BA6ACC
:1011E000B7F84C30D318BB62FB6AC3F10003002B85
:1011F00001DA03F103034FEAA3034FEA2323DBB22F
:1012000087F83830FB6AC3F10003002B01DA03F1E1
:1012100003034FEAA303DBB287F839303B6BC3F11A
:101220000003002B01DA03F103034FEAA3034FEAA3
:101230002323DBB287F83A303B6BC3F10003002B6A
:1012400001DA03F103034FEAA303DBB287F83B3073
:101250007B6BC3F10003002B01DA03F103034FEAB8
:10126000A3034FEA2323DBB287F83C307B6BC3F147
:101270000003002B01DA03F103034FEAA303DBB2FF
:1012800087F83D3097F8383041F24C30C0F6020014
:101290004FF0D0014FF01302FFF7F0F897F8393014
:1012A00041F24C30C0F602004FF0D0014FF0140272
:1012B000FFF7E4F897F83A3041F24C30C0F60200FC
:1012C0004FF0D0014FF01502FFF7D8F897F83B30F8
:1012D00041F24C30C0F602004FF0D0014FF0160240
:1012E000FFF7CCF897F83C3041F24C30C0F60200E2
:1012F0004FF0D0014FF01702FFF7C0F897F83D30DC
:1013000041F24C30C0F602004FF0D0014FF018020D
:10131000FFF7B4F84FF000037B614FF00003BB61AF
:101320004FF00003FB6107F13803009341F24C30AA
:10133000C0F602004FF0D0014FF006024FF002035A
:10134000FFF7B6F897F838304FEA03239BB21AB28A
:1013500097F8393013437B6107F13803009341F26A
:101360004C30C0F602004FF0D0014FF008024FF0B1
:101370000203FFF79DF897F838304FEA03239BB23A
:101380001AB297F839301343BB6107F13803009361
:1013900041F24C30C0F602004FF0D0014FF00A028B
:1013A0004FF00203FFF784F897F838304FEA032331
:1013B0009BB21AB297F839301343FB614FF0010327
:1013C0007B644FF000033B744FF000037B744FF0DD
:1013D0000003BB744FF00003A7F84E301CE0B7F8D1
:1013E0004E304FEA830307F15002D31853F83C3CC8
:1013F0001A467B6C1340002B08D0B7F84E3007F12B
:101400005001CB184FF0010203F8402CB7F84E30D2
:1014100003F10103A7F84E30B7F84E30022BDED9A6
:101420007A693B6A002B01DA03F107034FEAE30311
:10143000D31A7B61BA697B6A002B01DA03F10703D7
:101440004FEAE303D31ABB61FA69BB6A002B01DAE6
:1014500003F107034FEAE303D31AFB617B694FEA09
:101460002323DBB287F838307B69DBB287F8393069
:1014700097F839203B7C1343DBB287F83930BB69DE
:101480004FEA2323DBB287F83A30BB69DBB287F837
:101490003B3097F83B207B7C1343DBB287F83B3033
:1014A000FB694FEA2323DBB287F83C30FB69DBB2F0
:1014B00087F83D3097F83D20BB7C1343DBB287F8BB
:1014C0003D3097F8383041F24C30C0F602004FF012
:1014D000D0014FF00602FEF7D1FF97F8393041F204
:1014E0004C30C0F602004FF0D0014FF00702FEF77B
:1014F000C5FF97F83A3041F24C30C0F602004FF089
:10150000D0014FF00802FEF7B9FF97F83B3041F2E7
:101510004C30C0F602004FF0D0014FF00902FEF748
:10152000ADFF97F83C3041F24C30C0F602004FF06E
:10153000D0014FF00A02FEF7A1FF97F83D3041F2CB
:101540004C30C0F602004FF0D0014FF00B02FEF716
:1015500095FF07F15007BD4680BD00BF00000000A9
:10156000B0B590B000AF41F24C30C0F602004FF081
:10157000D0014FF01C024FF0F003FEF77FFF41F265
:101580004C30C0F602004FF0D0014FF01B024FF07C
:10159000E003FEF773FF4FF0FA00FFF761F941F245
:1015A0004C30C0F602004FF0D0014FF00D02FFF7B3
:1015B000D9F80346DBB287F8383041F24C30C0F638
:1015C00002004FF0D0014FF00E02FFF7CBF80346B8
:1015D000DBB287F8393041F24C30C0F602004FF0F0
:1015E000D0014FF00F02FFF7BDF80346DBB287F8DA
:1015F0003A3041F24C30C0F602004FF0D0014FF0CB
:101600001002FFF7AFF80346DBB287F83B3097F8DC
:1016100038304FEAD303DBB2DAB297F83B3003F04D
:1016200030034FEA2313DBB21343DBB2DBB287F89C
:10163000303097F839304FEAD303DBB287F83130D6
:1016400097F83A304FEAD303DBB287F8323097F895
:10165000383003F01F03DBB287F8333097F83930A6
:1016600003F01F03DBB287F8343097F83A3003F009
:101670001F03DBB287F8353097F8303007EE103AA9
:10168000F8EE477A17EE900A18F0FEF902460B467C
:10169000104619464FF000024FF00003C3F6F073F6
:1016A00018F092F802460B46104619464FF0000219
:1016B0004FF00003C4F23E0318F064FB02460B46F1
:1016C000D9A1D1E9000114F015FE02460B461046DF
:1016D0001946D7A3D3E9002318F02AFA02460B468D
:1016E0001046194618F0E6FC0346BB6197F8313006
:1016F00007EE103AF8EE477A17EE900A18F0C4F9A0
:1017000002460B46104619464FF000024FF0000308
:10171000C3F6F07318F058F802460B461046194607
:101720004FF000024FF00003C4F23E0318F02AFB12
:1017300002460B46BCA1D1E9000114F0DBFD0246D4
:101740000B4610461946BAA3D3E9002318F0F0F966
:1017500002460B461046194618F0ACFC0346FB61E6
:1017600097F8323007EE103AF8EE477A17EE900A03
:1017700018F08AF902460B46104619464FF000024F
:101780004FF00003C3F6F07318F01EF802460B4644
:10179000104619464FF000024FF00003C4F23E031A
:1017A00018F0F0FA02460B469FA1D1E9000114F0AF
:1017B000A1FD02460B46104619469DA3D3E900231E
:1017C00018F0B6F902460B461046194618F072FC9E
:1017D00003463B6297F8333007EE103AF8EE477A4B
:1017E00017EE900A18F050F902460B4610461946BB
:1017F0004FF000024FF00003C3F6F07317F0E4FF60
:1018000002460B468CA1D1E9000114F073FD02469B
:101810000B46104619468AA3D3E9002318F088F92D
:1018200002460B461046194618F044FC03467B62FC
:1018300097F8343007EE103AF8EE477A17EE900A30
:1018400018F022F902460B46104619464FF00002E6
:101850004FF00003C3F6F07317F0B6FF02460B46D5
:1018600075A1D1E9000114F045FD02460B46104672
:10187000194675A3D3E9002318F05AF902460B461E
:101880001046194618F016FC0346BB6297F835302F
:1018900007EE103AF8EE477A17EE900A18F0F4F8CF
:1018A00002460B46104619464FF000024FF0000367
:1018B000C3F6F07317F088FF02460B465EA1D1E92C
:1018C000000114F017FD02460B46104619465CA3B2
:1018D000D3E9002318F02CF902460B4610461946AE
:1018E00018F0E8FB0346FB624FF00003FB6356E091
:1018F00007F13002FB6BD3181B7807EE903AB8EE75
:10190000677AFB6B4FEA830307F14001CB1853ED75
:101910000A7A77EE677A17EE900A18F0B5F8024661
:101920000B46104619464FF000024FF00003C4F278
:10193000590318F0FDF802460B4614461D46FB6B92
:101940004FEA830307F14002D31853F8283C1846A6
:1019500018F09AF802460B462046294618F012FA6B
:1019600002460B46104619464FF000024FF00003A6
:10197000C4F2590317F02AFF02460B4610461946D7
:1019800018F098FB0246FB6B4FEA830307F1400116
:10199000CB1843F8402CFB6B03F10103FB63FB6B9B
:1019A000052BA5DD97ED007AF7EE007AB4EEE77A25
:1019B000F1EE10FA2FD597ED017AF7EE007AB4EE3A
:1019C000E77AF1EE10FA26D597ED027AF7EE007A73
:1019D000B4EEE77AF1EE10FA1DD597ED037AF7EE43
:1019E000007AB4EEE77AF1EE10FA14D597ED047AA6
:1019F000F7EE007AB4EEE77AF1EE10FA0BD597ED38
:101A0000057AF7EE007AB4EEE77AF1EE10FA02D535
:101A10004FF0010301E04FF00003184607F14007C3
:101A2000BD46B0BDAFF30080A5A5A5A5A5A5054001
:101A3000C3F5285C8FC2954023DBF97E6ABCF03F7A
:101A4000000000000096A940000000000096A9C018
:101A500080B400AF40F69433C2F200031B78032B2E
:101A600032D801A252F823F0791A00088D1A000822
:101A7000A11A0008B51A000840F6E853C2F20003A4
:101A80004FF00002C3F6FA321A601DE040F6E85348
:101A9000C2F200034FF00002C3F67A421A6013E06C
:101AA00040F6E853C2F200034FF00002C3F6FA42D8
:101AB0001A6009E040F6E853C2F200034FF000025A
:101AC000C3F67A521A6000BFBD4680BC704700BFA3
:101AD00080B400AF40F69533C2F200031B78032BAD
:101AE0002AD801A252F823F0F91A0008091B0008AD
:101AF000191B0008291B000840F6E453C2F200033A
:101B00004FF062521A6017E040F6E453C2F200034D
:101B10004FF064521A600FE040F6E453C2F2000343
:101B20004FF066521A6007E040F6E453C2F2000339
:101B30004FF068521A6000BFBD4680BC704700BFBE
:101B400080B400AF40F6E833C2F200031B881846A9
:101B5000BD4680BC704700BF2DE9F04383B000AFA5
:101B60007860396040F6E033C2F2000393ED007A0A
:101B7000F6EE007AB4EEE77AF1EE10FA00F2918018
:101B800040F6E033C2F2000393ED007AFEEE007AF5
:101B9000B4EEE77AF1EE10FAC0F2838040F200036F
:101BA000C2F2000393ED017A40F20003C2F2000397
:101BB000D3ED027A27EE277A40F20003C2F2000347
:101BC000D3ED006A40F20003C2F20003D3ED037AC2
:101BD00066EEA77A77EE277A77EEA77A17EE900A65
:101BE00017F052FF8046894640F20003C2F200031C
:101BF00093ED007A40F20003C2F20003D3ED007AC5
:101C000027EE277A40F20003C2F20003D3ED016A07
:101C100040F20003C2F20003D3ED017A66EEA77A28
:101C200037EE277A40F20003C2F20003D3ED026AD6
:101C300040F20003C2F20003D3ED027A66EEA77A07
:101C400037EE677A40F20003C2F20003D3ED036A75
:101C500040F20003C2F20003D3ED037A66EEA77AE6
:101C600077EE677A17EE900A17F00EFF02460B46E2
:101C70004046494614F03CFB02460B4610461946C6
:101C8000B9A3D3E9002317F053FF02460B461046D1
:101C9000194618F00FFA024640F6E033C2F200038C
:101CA0001A6040F20003C2F2000393ED017A40F2A1
:101CB0000003C2F20003D3ED027A27EE277A40F246
:101CC0000003C2F20003D3ED006A40F20003C2F247
:101CD0000003D3ED037A66EEA77A77EE277A77EEE4
:101CE000A77A17EE900A17F0CFFE8046894640F299
:101CF0000003C2F2000393ED007A40F20003C2F247
:101D00000003D3ED007A27EE277A40F20003C2F2F7
:101D10000003D3ED016A40F20003C2F20003D3EDE9
:101D2000017A66EEA77A37EE277A40F20003C2F214
:101D30000003D3ED026A40F20003C2F20003D3EDC8
:101D4000027A66EEA77A37EE677A40F20003C2F2B3
:101D50000003D3ED036A40F20003C2F20003D3EDA7
:101D6000037A66EEA77A77EE677A17EE900A17F095
:101D70008BFE02460B464046494614F0B9FA02462D
:101D80000B461046194678A3D3E9002317F0D0FE7E
:101D900002460B469046994640F6E033C2F20003F5
:101DA0001B68184617F070FE02460B46404649462F
:101DB00017F00AFD02460B461046194618F07AF94C
:101DC00002467B681A607B6803F1040640F2000358
:101DD000C2F2000393ED017A40F20003C2F2000365
:101DE000D3ED037A27EE277A40F20003C2F2000314
:101DF000D3ED006A40F20003C2F20003D3ED027A91
:101E000066EEA77A77EE677A77EEA77A17EE900AF2
:101E100017F03AFE02460B461046194614F016FA21
:101E200002460B46144683F00045204629464EA341
:101E3000D3E9002317F07CFE02460B4610461946F4
:101E400018F038F9034633607B6803F1080640F266
:101E50000003C2F2000393ED007A40F20003C2F2E5
:101E60000003D3ED017A27EE277A40F20003C2F295
:101E70000003D3ED026A40F20003C2F20003D3ED87
:101E8000037A66EEA77A77EE277A77EEA77A17EECF
:101E9000900A17F0F9FD04460D4640F20003C2F225
:101EA000000393ED007A40F20003C2F20003D3ED89
:101EB000007A27EE277A40F20003C2F20003D3ED46
:101EC000016A40F20003C2F20003D3ED017A66EE2C
:101ED000A77A37EE677A40F20003C2F20003D3ED2F
:101EE000026A40F20003C2F20003D3ED027A66EE0A
:101EF000A77A37EE677A40F20003C2F20003D3ED0F
:101F0000036A40F20003C2F20003D3ED037A66EEE7
:101F1000A77A77EE277A17EE900A17F0B5FD0246FA
:101F20000B462046294614F0E3F902460B461046BC
:101F300019460DA3D3E9002317F0FAFD02460B461C
:101F40001046194618F0B6F80346336040F6E03301
:101F5000C2F200031A683B681A6007F10C07BD461D
:101F6000BDE8F083AFF3008000000020DCA54C400A
:101F700080B483B000AF786040F6B033C2F20003A3
:101F80001A687B681A607B6803F1040240F6B0337C
:101F9000C2F200035B6813607B6803F1080240F63D
:101FA000B033C2F200039B68136007F10C07BD4613
:101FB00080BC7047F0B593B008AF41F29C33C0F6D7
:101FC00002031A6841F29C33C0F602031B7903F145
:101FD000040352F8233003F080034FEAD3137B62EB
:101FE0007B6A002B00F07A8241F24C30C0F602008E
:101FF0004FF0D0014FF03A02FEF7B4FB034687F8EA
:1020000023303B46009341F24C30C0F602004FF0C3
:10201000D0014FF072024FF00203FEF749FA3B780D
:102020004FEA03239AB27B7813439BB23B8497F821
:10203000233003F01003002B03D13B8CB3F5806FEA
:102040000CD141F24C30C0F602004FF0D0014FF0FD
:102050006A024FF06403FEF711FA37E297F8233073
:1020600003F00103002B00F031823B46009341F264
:102070004C30C0F602004FF0D0014FF074024FF028
:102080001303FEF715FA0346002B00F01F823B787E
:102090004FEA03239AB27B7813439AB240F6DC539B
:1020A000C2F200031A80BB784FEA03239AB2FB788E
:1020B00013439AB240F6DC53C2F200035A803B79D4
:1020C0004FEA03239AB27B7913439AB240F6DC536A
:1020D000C2F200039A80FFF7FBFC40F6DC53C2F229
:1020E00000031B881BB207EE903AB8EEE77A40F681
:1020F000E453C2F20003D3ED007A67EE277A40F68C
:102100009833C2F20003C3ED007A40F6DC53C2F20A
:1021100000035B881BB207EE903AB8EEE77A40F610
:10212000E453C2F20003D3ED007A67EE277A40F65B
:102130009833C2F20003C3ED017A40F6DC53C2F2D9
:1021400000039B881BB207EE903AB8EEE77A40F6A0
:10215000E453C2F20003D3ED007A67EE277A40F62B
:102160009833C2F20003C3ED027ABB794FEA03232E
:102170009AB2FB7913439AB240F6D453C2F20003E9
:102180001A803B7A4FEA03239AB27B7A13439AB2BE
:1021900040F6D453C2F200035A80BB7A4FEA0323BD
:1021A0009AB2FB7A13439AB240F6D453C2F20003B8
:1021B0009A80FFF74DFC40F6D453C2F200031B880F
:1021C0001BB207EE903AB8EEE77A40F6E853C2F257
:1021D0000003D3ED007A27EE277ADFEDC27A67EEAF
:1021E000277A40F6A433C2F20003C3ED007A40F62A
:1021F000D453C2F200035B881BB207EE903AB8EEEC
:10220000E77A40F6E853C2F20003D3ED007A27EEF6
:10221000277ADFEDB47A67EE277A40F6A433C2F26C
:102220000003C3ED017A40F6D453C2F200039B8849
:102230001BB207EE903AB8EEE77A40F6E853C2F2E6
:102240000003D3ED007A27EE277ADFEDA67A67EE5A
:10225000277A40F6A433C2F20003C3ED027A3B7B37
:10226000FB77FB7F03F00103002B00F0C1807B7B39
:102270004FEA03239AB2BB7B13439AB240F6CC5386
:10228000C2F200031A80FB7B4FEA03239AB23B7C25
:1022900013439AB240F6CC53C2F200035A807B7CBF
:1022A0004FEA03239AB2BB7C13439AB240F6CC5355
:1022B000C2F200039A8040F6EC53C2F200034FF4DE
:1022C0000062C4F240021A6040F6C833C2F2000352
:1022D0004FF2FD62C4F2A5021A6040F6C833C2F2A2
:1022E00000034CF23B02CCF2C5225A6040F6C833E0
:1022F000C2F2000349F6C642CCF2FC329A6040F6C4
:10230000CC53C2F200031B881BB207EE903AB8EE22
:10231000E77A40F6EC53C2F20003D3ED007A27EEE1
:10232000277A40F6BC33C2F20003D3ED007A27EEE1
:10233000277A40F6C833C2F20003D3ED007A77EE75
:10234000677A40F6B033C2F20003C3ED007A40F67C
:10235000CC53C2F200035B881BB207EE903AB8EE92
:10236000E77A40F6EC53C2F20003D3ED007A27EE91
:10237000277A40F6BC33C2F20003D3ED017A27EE90
:10238000277A40F6C833C2F20003D3ED017A77EE24
:10239000677A40F6B033C2F20003C3ED017A40F62B
:1023A000CC53C2F200039B881BB207EE903AB8EE02
:1023B000E77A40F6EC53C2F20003D3ED007A27EE41
:1023C000277A40F6BC33C2F20003D3ED027A27EE3F
:1023D000277A40F6C833C2F20003D3ED027A77EED3
:1023E000677A40F6B033C2F20003C3ED027A02E02E
:1023F0004FF00003FB77FEF74DFAB86140F6E43387
:10240000C2F200031B68BA69D31A07EE903AB8EE1D
:10241000677ADFED357AC7EE277AC7ED057A40F6A1
:10242000E433C2F20003BA691A6040F69833C2F28C
:1024300000031A6840F69833C2F200035C6840F665
:102440009833C2F20003D3F808C040F6A433C2F2B6
:102450000003D3F800E040F6A433C2F200035E6844
:1024600040F6A433C2F200039D6840F6B033C2F2D6
:102470000003586840F6B033C2F20003196840F612
:10248000B033C2F20003D3ED027AF1EE677ACDF8F1
:1024900000C0CDF804E00296039504900591CDEDBF
:1024A000067A40F20000C2F200007969234600F08B
:1024B0001DF840F6E833C2F200031B8803F1010364
:1024C0009AB240F6E833C2F200031A8041F29C331C
:1024D000C0F6020393E8070012F024FE07F12C0770
:1024E000BD46F0BD35FA8E3C00007A4480B5ACB0F4
:1024F00000AFF860B9607A603B60FB681B68C7F8A2
:10250000AC30FB685B68C7F8A830FB689B68C7F80D
:10251000A430FB68DB68C7F8A0304CF20E73C3F63A
:102520001A73C7F89C30D7ED2B7A77EEA77AC7EDF0
:10253000267AD7ED2A7A77EEA77AC7ED257AD7EDF6
:10254000297A77EEA77AC7ED247AD7ED287A77EE45
:10255000A77AC7ED237AD7ED2B7A37EEA77AD7ED96
:10256000297A67EE277AC7ED227AD7ED297A37EEF6
:10257000A77AD7ED287A67EE277AC7ED217A97ED0B
:102580002B7AD7ED2B7A67EE277AC7ED207A97ED75
:102590002B7AD7ED2A7A67EE277AC7ED1F7A97ED67
:1025A0002B7AD7ED297A67EE277AC7ED1E7A97ED59
:1025B0002B7AD7ED287A67EE277AC7ED1D7A97ED4B
:1025C0002A7AD7ED2A7A67EE277AC7ED1C7A97ED3B
:1025D0002A7AD7ED297A67EE277AC7ED1B7A97ED2D
:1025E0002A7AD7ED287A67EE277AC7ED1A7A97ED1F
:1025F000297AD7ED297A67EE277AC7ED197A97ED10
:10260000297AD7ED287A67EE277AC7ED187A97ED01
:10261000287AD7ED287A67EE277AC7ED177A97EDF3
:10262000017AD7ED017A27EE277AD7ED006AD7ED48
:10263000007A66EEA77A37EE277AD7ED2E6AD7EDC5
:102640002E7A66EEA77A77EE277A17EE900A17F0C1
:102650001BFA02460B461046194613F0D3FF0246FA
:102660000B461046194617F025FD0346BB65D7ED0E
:10267000167AF5EE407AF1EE10FA00F0F785B7EE33
:10268000007AD7ED167AC7EE277AC7ED167A97ED5E
:10269000017AD7ED167A67EE277AC7ED017A97EDC2
:1026A000007AD7ED167A67EE277AC7ED007A97EDB4
:1026B0002E7AD7ED167A67EE277AC7ED2E7A97ED48
:1026C000327AD7ED327A27EE277AD7ED336AD7ED13
:1026D000337A66EEA77A37EE277AD7ED346AD7EDEC
:1026E000347A66EEA77A77EE277A17EE900A17F01B
:1026F000CBF902460B461046194613F083FF0246FB
:102700000B461046194617F0D5FC0346BB65D7EDBE
:10271000167AF5EE407AF1EE10FA00F0A985B7EEE0
:10272000007AD7ED167AC7EE277AC7ED167A97EDBD
:10273000327AD7ED167A67EE277AC7ED327A97EDBF
:10274000337AD7ED167A67EE277AC7ED337A97EDAD
:10275000347AD7ED167A67EE277AC7ED347AD7ED5B
:102760002B7A37EEA77AD7ED327A67EE277AC7ED64
:10277000157AD7ED2B7A37EEA77AD7ED337A67EE55
:10278000277AC7ED147AD7ED2B7A37EEA77AD7EDF3
:10279000347A67EE277AC7ED137AD7ED2A7A37EEC7
:1027A000A77AD7ED327A67EE277AC7ED127A97EDDE
:1027B000327AD7ED207A27EE277AD7ED146AD7ED53
:1027C000287A66EEA77A37EE677AD7ED136AD7EDE7
:1027D000297A66EEA77A37EE277AD7ED326AD7EDF7
:1027E0001C7A66EEA77A37EE277AD7ED256AD7ED01
:1027F000337A66EEA76AD7ED297A66EEA77A37EEC6
:10280000277AD7ED256AD7ED347A66EEA76AD7ED39
:10281000287A66EEA77A37EE277AD7ED326AD7EDB7
:10282000197A66EEA77A37EE677AD7ED326AD7ED76
:10283000177A66EEA77A77EE677AC7ED117A97ED89
:10284000157AD7ED287A27EE277AD7ED336AD7EDB8
:10285000207A66EEA77A37EE277AD7ED136AD7ED9E
:102860002A7A66EEA77A37EE677AD7ED126AD7ED45
:10287000297A66EEA77A37EE277AD7ED336AD7ED55
:102880001C7A66EEA77A37EE677AD7ED336AD7ED12
:10289000197A66EEA77A37EE277AD7ED246AD7ED54
:1028A000347A66EEA76AD7ED287A66EEA77A37EE15
:1028B000277AD7ED336AD7ED177A66EEA77A77EEE7
:1028C000677AC7ED107A97ED117AD7ED117A27EE76
:1028D000277AD7ED106AD7ED107A66EEA77A77EEF1
:1028E000277A17EE900A17F0CFF802460B461046EB
:1028F000194613F087FE02460B461046194617F09C
:10290000D9FB0346FB63D7ED157AB1EE677AD7EDB5
:10291000297A27EE277AD7ED146AD7ED2A7A66EE60
:10292000A77A37EE277AD7ED346AD7ED207A66EEAC
:10293000A77A37EE277AD7ED126AD7ED287A66EEB6
:10294000A77A37EE277AD7ED346AD7ED1C7A66EE90
:10295000A77A37EE677AD7ED246AD7ED337A66EE39
:10296000A76AD7ED287A66EEA77A37EE277AD7EDF1
:10297000346AD7ED197A66EEA77A37EE677AD7ED23
:10298000346AD7ED177A66EEA77A77EE277AC7ED25
:102990000E7AD7ED0F7A77EEA77AC7ED0D7AD7EDDD
:1029A0000E7A77EEA77AC7ED0C7AD7ED247AB1EEDE
:1029B000677AD7ED1A7A77EEA76AD7ED227A76EEA4
:1029C000E76AD7ED017A76EEE77A27EE277AD7ED38
:1029D0001F7A77EEA76AD7ED217A76EEA76AD7ED50
:1029E000007A76EEE76AD7ED257A66EEA77A37EEBB
:1029F000277AD7ED0E6AD7ED297A66EEA76AB6EE8A
:102A0000006AD7ED197A36EE676AD7ED177A36EE97
:102A1000676AD7ED0F7A26EE276AD7ED1A5AD7EDF7
:102A20001E7A75EEE75AD7ED0E7A65EEA77A36EE86
:102A3000276AD7ED327A76EE677A66EEA77A37EEB6
:102A4000677AD7ED0F7AF1EE676AD7ED287A66EEEE
:102A5000A76A97ED0E6AD7ED2A7A66EE277A76EEA8
:102A6000A76A97ED1B6AD7ED1D7A36EE676AD7ED38
:102A70000F7A26EE276AD7ED1F5AD7ED187A75EE32
:102A8000A75AD7ED0E7A65EEA77A36EE276AD7ED0C
:102A9000337A76EE677A66EEA77A37EE277AD7ED45
:102AA0000F6AD7ED297A66EEA76A97ED1E6AD7ED11
:102AB0001A7A36EE276AD7ED0F7A26EE276AF6EEF7
:102AC000005AD7ED1C7A75EEE75AD7ED197A75EEF4
:102AD000E75AD7ED0E7A65EEA77A36EE276AD7ED7C
:102AE000347A76EE677A66EEA77A77EE277AC7EDC4
:102AF0000B7AD7ED1A7A37EEA77AD7ED227A37EE2E
:102B0000677AD7ED017A37EE677AD7ED237A27EE29
:102B1000277AD7ED1F7A77EEA76AD7ED217A76EE7E
:102B2000A76AD7ED007A76EEE76AD7ED267A66EEE9
:102B3000A77A37EE277AD7ED2A6AF1EE007A66EEA9
:102B4000A76AD7ED1C7A77EEA77AB7EE006A36EE61
:102B5000676AD7ED197A77EEA77A36EE676AD7ED0E
:102B60002E7A76EE677A66EEA77A37EE677AD7ED39
:102B70000E6AD7ED287A66EEA76AB6EE006AD7ED40
:102B8000197A36EE676AD7ED177A36EE676AD7EDAF
:102B90000F7A26EE276AD7ED1A5AD7ED1E7A75EE10
:102BA000E75AD7ED0E7A65EEA77A36EE276AD7EDAB
:102BB000327A76EE677A66EEA77A37EE277AD7ED25
:102BC0000F6AD7ED297A66EEA76A97ED0E6AD7ED00
:102BD0002B7A66EE277A76EEA76A97ED1B6AD7ED19
:102BE0001D7A36EE676AD7ED0F7A26EE276AD7EDA3
:102BF0001F5AD7ED187A75EEA75AD7ED0E7A65EE03
:102C0000A77A36EE276AD7ED337A76EE677A66EEE4
:102C1000A77A37EE277AD7ED0F6AD7ED287A66EED6
:102C2000A76A97ED0C6AD7ED2A7A66EE277A76EED8
:102C3000E76A97ED1E6AD7ED1A7A36EE276AD7ED66
:102C40000F7A26EE276AF6EE005AD7ED1C7A75EE5B
:102C5000E75AD7ED197A75EEE75AD7ED0E7A65EE99
:102C6000A77A36EE276AD7ED347A76EE677A66EE83
:102C7000A77A77EE277AC7ED0A7AD7ED267AB1EEF2
:102C8000677AD7ED1A7A77EEA76AD7ED227A76EED1
:102C9000E76AD7ED017A76EEE77A27EE277AD7ED65
:102CA0001F7A77EEA76AD7ED217A76EEA76AD7ED7D
:102CB000007A76EEE76AD7ED237A66EEA77A37EEEA
:102CC000277AD7ED296AF1EE007A66EEA76AD7ED8A
:102CD0001C7A77EEA77AB7EE006A36EE676AD7ED10
:102CE000197A77EEA77A36EE676AD7ED2E7A76EE06
:102CF000677A66EEA77A37EE677AD7ED0D7AF1EE4E
:102D0000676AD7ED297A66EEA76A97ED0E6AD7ED66
:102D10002B7A66EE277A76EEE76AB6EE006AD7ED92
:102D2000197A36EE676AD7ED177A36EE676AD7ED0D
:102D30000F7A26EE276AD7ED1A5AD7ED1E7A75EE6E
:102D4000E75AD7ED0E7A65EEA77A36EE276AD7ED09
:102D5000327A76EE677A66EEA77A37EE277AD7ED83
:102D60000F6AD7ED2A7A66EEA76A97ED0E6AD7ED5D
:102D7000287A66EE277A76EEA76A97ED1B6AD7ED7A
:102D80001D7A36EE676AD7ED0F7A26EE276AD7ED01
:102D90001F5AD7ED187A75EEA75AD7ED0E7A65EE61
:102DA000A77A36EE276AD7ED337A76EE677A66EE43
:102DB000A77A37EE277AD7ED0F6AD7ED2B7A66EE32
:102DC000A76A97ED0C6AD7ED297A66EE277A76EE38
:102DD000E76A97ED1E6AD7ED1A7A36EE276AD7EDC5
:102DE0000F7A26EE276AF6EE005AD7ED1C7A75EEBA
:102DF000E75AD7ED197A75EEE75AD7ED0E7A65EEF8
:102E0000A77A36EE276AD7ED347A76EE677A66EEE1
:102E1000A77A77EE277AC7ED097AD7ED1A7A37EED7
:102E2000A77AD7ED227A37EE677AD7ED017A37EEB7
:102E3000677AD7ED257A27EE277AD7ED1F7A77EED6
:102E4000A76AD7ED217A76EEA76AD7ED007A76EEFB
:102E5000E76AD7ED247A66EEA77A37EE277AD7EDC0
:102E60000D7AF1EE676AD7ED287A66EEA76A97EDDC
:102E70000E6AD7ED2A7A66EE277A76EEA76AB6EE64
:102E8000006AD7ED197A36EE676AD7ED177A36EE13
:102E9000676AD7ED0F7A26EE276AD7ED1A5AD7ED73
:102EA0001E7A75EEE75AD7ED0E7A65EEA77A36EE02
:102EB000276AD7ED327A76EE677A66EEA77A37EE32
:102EC000277AD7ED0F7AF1EE676AD7ED2B7A66EEA7
:102ED000A76A97ED0E6AD7ED297A66EE277A76EE25
:102EE000A76A97ED1B6AD7ED1D7A36EE676AD7EDB4
:102EF0000F7A26EE276AD7ED1F5AD7ED187A75EEAE
:102F0000A75AD7ED0E7A65EEA77A36EE276AD7ED87
:102F1000337A76EE677A66EEA77A37EE277AD7EDC0
:102F20000F6AD7ED2A7A66EEA76A97ED1E6AD7ED8B
:102F30001A7A36EE276AD7ED0F7A26EE276AF6EE72
:102F4000005AD7ED1C7A75EEE75AD7ED197A75EE6F
:102F5000E75AD7ED0E7A65EEA77A36EE276AD7EDF7
:102F6000347A76EE677A66EEA77A77EE277AC7ED3F
:102F7000087A97ED0B7AD7ED0B7A27EE277AD7ED03
:102F80000A6AD7ED0A7A66EEA77A37EE277AD7ED86
:102F9000096AD7ED097A66EEA77A37EE277AD7ED78
:102FA000086AD7ED087A66EEA77A77EE277A17EEE9
:102FB000900A16F069FD02460B461046194613F0BA
:102FC00021FB02460B461046194617F073F80346DC
:102FD000BB65B7EE007AD7ED167AC7EE277AC7ED54
:102FE000167A97ED0B7AD7ED167A67EE277AC7ED4A
:102FF0000B7A97ED0A7AD7ED167A67EE277AC7ED46
:103000000A7A97ED097AD7ED167A67EE277AC7ED37
:10301000097A97ED087AD7ED167A67EE277AC7ED29
:10302000087AD7ED2A7AB1EE677AD7ED2F7A27EEB4
:10303000277AD7ED296AD7ED307A66EEA77A37EE90
:10304000677AD7ED286AD7ED317A66EEA77A37EE40
:10305000677AF6EE007A27EE277AD7ED276AD7ED62
:103060000B7A66EEA77A77EE677AC7ED077A97ED67
:103070002B7AD7ED2F7A27EE277AD7ED296AD7ED6D
:10308000317A66EEA77A37EE277AD7ED286AD7ED40
:10309000307A66EEA77A37EE677AF6EE007A27EE98
:1030A000277AD7ED276AD7ED0A7A66EEA77A77EE08
:1030B000677AC7ED067A97ED2B7AD7ED307A27EE4F
:1030C000277AD7ED2A6AD7ED317A66EEA77A37EEFE
:1030D000677AD7ED286AD7ED2F7A66EEA77A37EEB2
:1030E000277AF6EE007A27EE277AD7ED276AD7ED12
:1030F000097A66EEA77A77EE677AC7ED057A97EDDB
:103100002B7AD7ED317A27EE277AD7ED2A6AD7EDD9
:10311000307A66EEA77A37EE277AD7ED296AD7EDAF
:103120002F7A66EEA77A37EE677AF6EE007A27EE08
:10313000277AD7ED276AD7ED087A66EEA77A77EE79
:10314000677AC7ED047A97ED077AD7ED027A67EED2
:10315000277A97ED2B7A77EE277AC7ED2B7A97EDC2
:10316000067AD7ED027A67EE277A97ED2A7A77EE1C
:10317000277AC7ED2A7A97ED057AD7ED027A67EEBE
:10318000277A97ED297A77EE277AC7ED297A97ED96
:10319000047AD7ED027A67EE277A97ED287A77EEF0
:1031A000277AC7ED287A97ED2B7AD7ED2B7A27EE81
:1031B000277AD7ED2A6AD7ED2A7A66EEA77A37EE14
:1031C000277AD7ED296AD7ED297A66EEA77A37EE06
:1031D000277AD7ED286AD7ED287A66EEA77A77EEB8
:1031E000277A17EE900A16F04FFC02460B4610465F
:1031F000194613F007FA02460B461046194616F018
:1032000059FF0346BB65B7EE007AD7ED167AC7EED5
:10321000277AC7ED167A97ED2B7AD7ED167A67EEF7
:10322000277AFB68C3ED007AFB6803F1040397ED8E
:103230002A7AD7ED167A67EE277AC3ED007AFB6813
:1032400003F1080397ED297AD7ED167A67EE277A0E
:10325000C3ED007AFB6803F10C0397ED287AD7EDF4
:10326000167A67EE277AC3ED007A02E000BF00E02D
:1032700000BF07F1B007BD4680BD00BF80B5A4B058
:1032800000AFF860B9607A603B60FB681B68C7F804
:103290008C30FB685B68C7F88830FB689B68C7F8B0
:1032A0008430FB68DB68C7F8803097ED237AD7ED70
:1032B000237A67EE277AC7ED1F7A97ED237AD7ED49
:1032C000227A67EE277AC7ED1E7A97ED237AD7ED3B
:1032D000217A67EE277AC7ED1D7A97ED237AD7ED2D
:1032E000207A67EE277AC7ED1C7A97ED227AD7ED20
:1032F000227A67EE277AC7ED1B7A97ED227AD7ED0F
:10330000217A67EE277AC7ED1A7A97ED227AD7ED00
:10331000207A67EE277AC7ED197A97ED217AD7EDF3
:10332000217A67EE277AC7ED187A97ED217AD7EDE3
:10333000207A67EE277AC7ED177A97ED207AD7EDD6
:10334000207A67EE277AC7ED167A97ED007AD7EDE7
:10335000007A27EE277AD7ED266AD7ED267A66EE31
:10336000A77A37EE277AD7ED276AD7ED277A66EE68
:10337000A77A77EE277A17EE900A16F085FB0246B9
:103380000B461046194613F03DF902460B4610460F
:10339000194616F08FFE03467B65D7ED157AF5EEDC
:1033A000407AF1EE10FA00F04B83B7EE007AD7EDD9
:1033B000157AC7EE277AC7ED157A97ED007AD7ED23
:1033C000157A67EE277AC7ED007A97ED267AD7ED62
:1033D000157A67EE277AC7ED267A97ED277AD7ED2B
:1033E000157A67EE277AC7ED277A97ED2B7AD7ED16
:1033F0002B7A27EE277AD7ED2C6AD7ED2C7A66EE5A
:10340000A77A37EE277AD7ED2D6AD7ED2D7A66EEBB
:10341000A77A77EE277A17EE900A16F035FB024668
:103420000B461046194613F0EDF802460B461046BF
:10343000194616F03FFE03467B65D7ED157AF5EE8B
:10344000407AF1EE10FA00F0FD82B7EE007AD7ED87
:10345000157AC7EE277AC7ED157A97ED2B7AD7ED57
:10346000157A67EE277AC7ED2B7A97ED2C7AD7ED90
:10347000157A67EE277AC7ED2C7A97ED2D7AD7ED7E
:10348000157A67EE277AC7ED2D7AD7ED2B7A37EECE
:10349000A77AF6EE006AD7ED187A76EEE76AD7EDEE
:1034A000167A76EEE77A27EE277AD7ED2C7A77EE42
:1034B000A76A97ED1A6AD7ED1C7A76EE677A66EE00
:1034C000A77A37EE277AD7ED2D7A77EEA76A97EDB0
:1034D000196AD7ED1D7A76EE277A66EEA77A77EE2F
:1034E000277AC7ED147AD7ED2B7A37EEA77AD7ED86
:1034F0001A6AD7ED1C7A76EEA77A27EE277AD7EDEF
:103500002C7A77EEA76AB6EE006AD7ED1B7A36EE14
:10351000676AD7ED167A76EE677A66EEA77A37EEA7
:10352000277AD7ED2D7A77EEA76A97ED176AD7ED50
:103530001E7A76EE677A66EEA77A77EE277AC7ED7F
:10354000137A97ED147AD7ED147A27EE277AD7ED10
:10355000136AD7ED137A66EEA77A77EE277A17EE1D
:10356000900A16F091FA02460B461046194613F0DF
:1035700049F802460B461046194616F09BFD0346D5
:10358000BB64D7ED2B7A37EEA77AD7ED196AD7ED62
:103590001D7A76EEE77A27EE277AD7ED2C7A77EE4A
:1035A000A76A97ED176AD7ED1E7A76EE277A66EE50
:1035B000A77A37EE277AD7ED2D7A77EEA76AB6EE9F
:1035C000006AD7ED1B7A36EE676AD7ED187A76EE89
:1035D000677A66EEA77A77EE277AC7ED117A97EDCC
:1035E000197AD7ED1D7A77EE677A77EEA77AC7ED6D
:1035F000107A97ED1E7AD7ED177A77EE277A77EE65
:10360000A77AC7ED0F7A97ED1F7AD7ED1B7A37EEC1
:10361000677AD7ED187A37EE677AD7ED167A77EEB4
:10362000277AC7ED0E7AD7ED127A37EEA77AF6EE43
:10363000006AD7ED187A76EEE76AD7ED167A76EE5D
:10364000E77A27EE277AD7ED117A77EEA76A97ED1A
:10365000196AD7ED1D7A76EE677A66EEA77A77EE6D
:10366000277AC7ED0D7AD7ED127A37EEA77AD7ED24
:103670001A6AD7ED1C7A76EEE77A27EE277AD7ED2D
:10368000117A77EEA76A97ED1E6AD7ED177A76EE74
:10369000277A66EEA77A77EE277AC7ED0C7AD7ED10
:1036A000127A37EEA77AD7ED1D6AD7ED197A76EE42
:1036B000A77A27EE277AD7ED117A77EEA76AB6EECA
:1036C000006AD7ED1B7A36EE676AD7ED187A76EE88
:1036D000677A66EEA77A77EE277AC7ED0B7A97EDD1
:1036E000267AD7ED0E7A27EE277AD7ED276AD7ED1F
:1036F0000F7A66EEA77A37EE677AD7ED2C6AD7EDA8
:103700000B7A66EEA76A97ED2D6AD7ED0C7A66EE16
:10371000277A76EEE77A77EE277AC7ED0A7A97ED81
:10372000277AD7ED107A27EE277AD7ED006AD7ED02
:103730000E7A66EEA77A37EE677AD7ED2D6AD7ED67
:103740000D7A66EEA76A97ED2B6AD7ED0B7A66EED7
:10375000277A76EEE77A77EE277AC7ED097A97ED42
:10376000007AD7ED0F7A27EE277AD7ED266AD7EDC4
:10377000107A66EEA77A37EE677AD7ED2B6AD7ED27
:103780000C7A66EEA76A97ED2C6AD7ED0D7A66EE95
:10379000277A76EEE77A77EE277AC7ED087ABB6864
:1037A0004FF000021A60BB6803F104034FF00002FF
:1037B0001A60BB6803F108034FF000021A6097ED2E
:1037C0000A7AF2EE047A27EE277AD7ED287A37EED6
:1037D000277ABB68D3ED006ADFED9D7A66EEA77AA3
:1037E00077EE277AC7ED287A97ED097AF2EE047A18
:1037F00027EE277AD7ED297A37EE277ABB6803F1CF
:103800000403D3ED006ADFED927A66EEA77A77EED5
:10381000277AC7ED297A97ED087AF2EE047A27EE37
:10382000277AD7ED2A7A37EE277ABB6803F10803A7
:10383000D3ED006ADFED867A66EEA77A77EE277A17
:10384000C7ED2A7AD7F88830FB61D7F88430BB619E
:10385000D7F880307B61D7ED227AB1EE677AD7ED69
:10386000287A27EE277AD7ED216AD7ED297A66EEF6
:10387000A77A37EE677AD7ED206AD7ED2A7A66EE17
:10388000A77A37EE677AD7ED016AF6EE007A66EE30
:10389000A77A67EE277A97ED237A77EE277AC7ED36
:1038A000237A97ED237AD7ED287A27EE277AD7ED7A
:1038B000066AD7ED2A7A66EEA77A37EE277AD7ED31
:1038C000056AD7ED297A66EEA77A37EE677AD7EDE3
:1038D000016AF6EE007A66EEA77A27EE277AD7ED30
:1038E000077A77EE277AC7ED227A97ED237AD7ED1C
:1038F000297A27EE277AD7ED076AD7ED2A7A66EE7E
:10390000A77A37EE677AD7ED056AD7ED287A66EEA3
:10391000A77A37EE277AD7ED016AF6EE007A66EEDF
:10392000A77A27EE277AD7ED067A77EE277AC7EDC2
:10393000217A97ED237AD7ED2A7A27EE277AD7EDE9
:10394000076AD7ED297A66EEA77A37EE277AD7EDA0
:10395000066AD7ED287A66EEA77A37EE677AD7ED52
:10396000016AF6EE007A66EEA77A27EE277AD7ED9F
:10397000057A77EE277AC7ED207A97ED237AD7ED8F
:10398000237A27EE277AD7ED226AD7ED227A66EEE0
:10399000A77A37EE277AD7ED216AD7ED217A66EE3E
:1039A000A77A37EE277AD7ED206AD7ED207A66EE30
:1039B000A77A77EE277A17EE900A16F065F8024696
:1039C0000B461046194612F01DFE02460B461046E5
:1039D000194616F06FFB03467B65B7EE007AD7ED0C
:1039E000157AC7EE277AC7ED157A97ED237AD7EDCA
:1039F000157A67EE277AFB68C3ED007AFB6803F15E
:103A0000040397ED227AD7ED157A67EE277AC3ED96
:103A1000007AFB6803F1080397ED217AD7ED157A58
:103A200067EE277AC3ED007AFB6803F10C0397ED8C
:103A3000207AD7ED157A67EE277AC3ED007A02E097
:103A400000BF00E000BF07F19007BD4680BD00BF8A
:103A50000000000080B48BB000AFF860B9607A60FD
:103A60003B60FB68D3ED047A97ED017A77EE677AD5
:103A7000FB68C3ED057AFB6893ED037AFB68D3ED31
:103A8000056AD7ED007A66EEA77A77EE277AFB68AB
:103A9000C3ED037AFB6893ED067AFB68D3ED096A00
:103AA000D7ED007A66EEA76AFB68D3ED077A76EE6B
:103AB000E76AFB68D3ED087A76EEE76AFB68D3ED38
:103AC000007A76EEA76AD7ED007A66EEA77A77EEEF
:103AD000277AFB68C3ED067AFB6893ED077AFB68EB
:103AE000D3ED096AD7ED007A66EEA77A77EE677AAA
:103AF000FB68C3ED077AFB6893ED087AFB68D3EDAA
:103B0000096AD7ED007A66EEA77A77EE677AFB68E6
:103B1000C3ED087AFB6893ED097AFB68D3ED016A7F
:103B2000D7ED007A66EEA77A77EE277AFB68C3EDC9
:103B3000097AFB6893ED067AFB68D3ED027A77EE9B
:103B4000277AC7ED097AFB6893ED067AD7ED097AF3
:103B5000C7EE277AC7ED047AFB6893ED087AD7EDB4
:103B6000097AC7EE277AC7ED057AFB68D3ED037AA9
:103B700097ED027A77EE677AC7ED087AFB6893EDE6
:103B8000037AD7ED046AD7ED087A66EEA77A77EE66
:103B9000277AFB68C3ED037AFB6893ED047AD7EDCF
:103BA000056AD7ED087A66EEA77A77EE277AFB6882
:103BB000C3ED047AFB689B69FB61FB68DB69BB6151
:103BC000FB6893ED067AD7ED046AD7ED077A66EEC7
:103BD000A77A77EE677AFB68C3ED067AFB6893ED08
:103BE000077AD7ED046AD7ED067A66EEA77A77EE04
:103BF000677AFB68C3ED077AFB6893ED087AD7ED27
:103C0000056AD7ED077A66EEA77A77EE677AFB68E2
:103C1000C3ED087AFB6893ED097AD7ED056AD7ED15
:103C2000067A66EEA77A77EE677AFB68C3ED097AC3
:103C3000FB68DB68184607F12C07BD4680BC70475F
:103C400080B485B000AFF860B9607A603B60FB6813
:103C5000BA681A60FB687A685A60FB683A689A60CA
:103C6000FB684FF00002DA60FB684FF000021A6157
:103C7000FB684FF000029A61FB684FF00002DA61C6
:103C8000FB684FF000021A62FB684FF000025A62B4
:103C900007F11407BD4680BC704700BF80B483B0F5
:103CA00000AF786039607B683A68DA6007F10C072A
:103CB000BD4680BC704700BF80B483B000AF786061
:103CC0007B685B69184607F10C07BD4680BC7047EE
:103CD00080B483B000AF786039607B683A681A605E
:103CE00007F10C07BD4680BC704700BF80B483B0AD
:103CF00000AF786039607B683A685A6007F10C075A
:103D0000BD4680BC704700BF80B483B000AF786010
:103D100039607B683A689A6007F10C07BD4680BC41
:103D2000704700BF80B483B000AF78607B681B68C9
:103D3000184607F10C07BD4680BC704780B483B0BD
:103D400000AF78607B685B68184607F10C07BD46DA
:103D500080BC704780B483B000AF78607B689B689C
:103D6000184607F10C07BD4680BC704780B500AF10
:103D700000F0ACF8024640F6EC33C2F200031A60E1
:103D800000F0DAF8024640F6F033C2F200031A609F
:103D900041F26430C0F602004FF0EE014FF00A022B
:103DA000FCF7E0FC40F6F433C2F200031B881A462D
:103DB00040F6EC33C2F20003196840F6F053C2F249
:103DC000000343F8221040F6F433C2F200031B88CC
:103DD00003F101039AB240F6F433C2F200031A80F1
:103DE00080BD00BF80B483B000AF7860396040F61A
:103DF000EC33C2F200031A687B681A6040F6F033B5
:103E0000C2F200031A683B681A6007F10C07BD464E
:103E100080BC704780B582B000AF41F26430C0F61C
:103E200002004FF0EE014FF00C024FF00903FCF7D7
:103E300025FB0346FB714FF06400FCF711FD4FF0CA
:103E4000EE004FF006014FF0770200F0ABF80346AA
:103E5000FB71FB79002B01D0FB7932E04FF0EE00D3
:103E60004FF007014FF0770200F09CF80346FB711A
:103E7000FB79002B01D0FB7923E04FF0EE004FF0EF
:103E800008014FF0C70200F08DF80346FB71FB7983
:103E9000002B01D0FB7914E04FF0EE004FF0090148
:103EA0004FF02C0200F07EF80346FB7141F26430C3
:103EB000C0F602004FF0EE014FF00A02FCF752FC90
:103EC000FB79184607F10807BD4680BD80B582B072
:103ED00000AF41F26430C0F602004FF0EE014FF047
:103EE0000002FCF73FFC0346FB7141F26430C0F670
:103EF00002004FF0EE014FF00102FCF733FC0346E5
:103F0000BB7141F26430C0F602004FF0EE014FF099
:103F10000202FCF727FC03467B71FB794FEA03435F
:103F20001A46BB794FEA03231A437B791343184699
:103F300007F10807BD4680BD80B582B000AF41F2F1
:103F40006430C0F602004FF0EE014FF00302FCF7C0
:103F500009FC0346FB7141F26430C0F602004FF0E9
:103F6000EE014FF00402FCF7FDFB0346BB7141F28A
:103F70006430C0F602004FF0EE014FF00502FCF78E
:103F8000F1FB03467B71FB794FEA03431A46BB7989
:103F90004FEA03231A437B791343184607F10807B6
:103FA000BD4680BD90B585B000AF13460246FA719C
:103FB0000A46BA717B714FF00003FB73F979BA7945
:103FC0007B7941F26430C0F60200FCF757FA7C7945
:103FD000FA79BB7941F26430C0F6020011461A4604
:103FE000FCF7C0FB03469C4220D0BB79A3F106033B
:103FF000032B1BD801A252F823F000BF0D4000088C
:10400000154000081D400008254000084FF001033E
:10401000FB730BE04FF00203FB7307E04FF0030369
:10402000FB7303E04FF00403FB7300BFFB7B1846F8
:1040300007F11407BD4690BD80B485B000AF0246BD
:104040000B46FA71BB71FB79FB60FB684FEA0322F8
:10405000BB791343184607F11407BD4680BC70476F
:1040600080B590B002AF4FF000037B6340F6F45090
:10407000C0F602004FF0100109F02AFE0346022BA1
:1040800040F0ED813B4640F6F450C0F60200194680
:104090004FF0200209F04CFD40F6F450C0F602004B
:1040A0004FF0100109F060FE0CE07B6B102BD4BFC9
:1040B00000230123DBB27A6B02F101027A63002B49
:1040C00040F0CD813A467B6BD3181B78302BECD176
:1040D0007B6B03F1010307F13801CB1813F8383C6F
:1040E000002BE2D17B6B03F1050307F13802D318F3
:1040F00013F8383CA22BD8D17B6B03F1080307F1EE
:104100003801CB1813F8383C2B2BCED17B6B03F145
:10411000090307F13802D31813F8383CFE2BC4D139
:104120007B6B03F1020307F13801CB1813F8382C2D
:104130007B6B03F1030307F13801CB1813F8383C0C
:1041400010461946FFF778FF38634EF66023009358
:10415000386B4FF4997140F2F7624FF0000300F0B2
:10416000F7FB0346184615F07DFC02460B46104649
:104170001946BDA3D3E9002315F004FE02460B4601
:104180001046194615F096FF024640F61843C2F253
:1041900000031A607B6B03F1060307F13802D318A2
:1041A00013F8382C7B6B03F1070307F13801CB18A8
:1041B00013F8383C10461946FFF73EFFF86247F205
:1041C00030530093F86A40F6321140F6CC6248F65C
:1041D000D023CFF6FF7300F0BBFB0346184615F063
:1041E00041FC02460B4610461946A1A3D3E9002321
:1041F00015F0C8FD02460B461046194615F05AFF49
:10420000024640F62443C2F200031A607B6B03F1BE
:104210000A0307F13802D31813F8382C7B6B03F12B
:104220000B0307F13801CB1813F8383C1046194638
:10423000FFF702FFB86247F230530093B86A41F2C9
:10424000301141F2CA6248F6D023CFF6FF7300F076
:104250007FFB0346184615F005FC02460B46104648
:10426000194683A3D3E9002315F08CFD02460B46C3
:104270001046194615F01EFF024640F62043C2F2D2
:1042800000031A607B6B03F10E0307F13802D318A9
:1042900013F8382C7B6B03F10F0307F13801CB18AF
:1042A00013F8383C10461946FFF7C6FE786247F20D
:1042B00030530093786A41F6321141F6CC6248F6E9
:1042C000D023CFF6FF7300F043FB0346184615F0EA
:1042D000C9FB02460B461046194665A3D3E90023E5
:1042E00015F050FD02460B461046194615F0E2FE49
:1042F000024640F61C43C2F200031A607B6B03F1D6
:104300000C0307F13802D31813F8382C7B6B03F138
:104310000D0307F13801CB1813F8383C1046194645
:10432000FFF78AFE38623A6A42F232139A4206D1A5
:1043300040F64943C2F200034FF000021A703A6A95
:1043400042F2CA639A4206D140F64943C2F20003E0
:104350004FF001021A703A6B40F2DC539A4214DDBE
:104360004FF40343C4F602034FF001025A604FF4C6
:104370000343C4F602034FF002025A604FF40343B2
:10438000C4F602034FF004025A603B6BB3F57A7F28
:1043900019DD3A6B40F2DB539A4214DC4FF40343CD
:1043A000C4F602034FF480325A604FF40343C4F65C
:1043B00002034FF002025A604FF40343C4F60203B3
:1043C0004FF004025A603B6BB3F5FA7F19DD3A6B8C
:1043D00040F2E7339A4214DC4FF40343C4F602037D
:1043E0004FF480325A604FF40343C4F602034FF493
:1043F00000325A604FF40343C4F602034FF0040244
:104400005A603A6B40F2F3139A4214DC4FF40343C0
:10441000C4F602034FF480325A604FF40343C4F6EB
:1044200002034FF400325A604FF40343C4F6020310
:104430004FF480225A6040F21003C2F200034FF0A2
:1044400000021A7040F64A43C2F200031B7803F1DF
:104450000103DAB240F64A43C2F200031A7007F1D0
:104460003807BD4680BD00BF00000000004CED4095
:1044700000000000004CDD4080B582B000AF40F687
:104480002860C0F602004FF0100109F021FC03463D
:10449000022B40F0B78040F62860C0F6020040F6DC
:1044A000F831C2F200014FF0200209F041FB40F662
:1044B0002860C0F602004FF0100109F055FC40F6EC
:1044C000F830C2F2000040F6B071C2F2000140F6CE
:1044D0008072C2F2000200F057FA78607B68012B0C
:1044E00000F08F80012B06D313F1020F6BD0B3F1D4
:1044F000FF3F4BD086E040F6B073C2F20003B3F842
:1045000001309AB240F62843C2F200031A8040F606
:10451000B073C2F20003D3F8073007EE103AF1EEA1
:10452000477A40F63043C2F20003C3ED007A40F60A
:10453000B073C2F20003D3F80B2013461A4640F6BC
:104540003443C2F200031A6040F6B073C2F20003B3
:10455000D3F8032013461A4640F62C43C2F2000358
:104560001A6040F21103C2F200034FF000021A7009
:1045700040F64B43C2F200031B7803F10103DAB2A9
:1045800040F64B43C2F200031A703BE040F628436A
:10459000C2F200034FF000021A8040F63043C2F22C
:1045A00000034FF000021A6040F63443C2F20003E9
:1045B0004FF000021A6040F62C43C2F200034FF0A5
:1045C00000021A601EE040F62843C2F200034FF0DA
:1045D00000021A8040F63043C2F200034FF000029E
:1045E0001A6040F63443C2F200034FF000021A6032
:1045F00040F62C43C2F200034FF000021A6000BFE5
:1046000000E000BF07F10807BD4680BD80B584B05B
:1046100000AF786040F64C43C2F200031A7840F6CF
:104620004A43C2F200031B789A4206D140F21003BB
:10463000C2F200034FF001021A7040F64A43C2F280
:1046400000031A7840F64C43C2F200031A7040F699
:104650004D43C2F200031A7840F64B43C2F2000306
:104660001B789A4206D140F21103C2F200034FF0C8
:1046700001021A7040F64B43C2F200031A7840F66A
:104680004D43C2F200031A704FF0FF03FB7307F1B2
:104690000F0340F62860C0F6020019464FF00102F1
:1046A00009F0CEFA07F11007BD4680BD80B500AF16
:1046B0004FF0C8004FF0010144F20D62C0F6000255
:1046C0004FF0000309F058FE024640F6AC73C2F208
:1046D00000031A6040F6AC73C2F200031B68002BA3
:1046E00007D040F6AC73C2F200031B68184609F00D
:1046F00013FF80BD80B400AF40F64A43C2F200030E
:104700001B781846BD4680BC704700BF0000000003
:1047100080B584B000AFF860B9607A603B6040F665
:104720004943C2F200031B78002B7DD140F21003F5
:10473000C2F200031B78002B10D0FB684FF0000280
:104740001A60BB684FF000021A607B684FF00002ED
:104750001A603B684FF000021A60E7E040F6184329
:10476000C2F2000393ED007ADFED777A67EE277AE5
:10477000FB68C3ED007A40F61C43C2F200031B68DD
:10478000184615F081F902460B46104619466AA3F1
:10479000D3E9002315F05CFC0346002B13D140F64F
:1047A0001C43C2F200031B68184615F06DF902465F
:1047B0000B461046194662A3D3E9002315F02AFCE4
:1047C0000346002B0DD040F61C43C2F2000393EDCC
:1047D000007ADFED5E7A67EE277ABB68C3ED007A78
:1047E00003E0BB684FF000021A6040F62443C2F2B7
:1047F0000003D3ED007AB1EE677AF3EE0E7A67EE3E
:10480000277A7B68C3ED007A40F62043C2F20003AA
:10481000D3ED007AB1EE677AF3EE0E7A67EE277A7F
:104820003B68C3ED007A81E040F21103C2F200035D
:104830001B78002B06D140F21003C2F200031B7854
:10484000002B10D0FB684FF000021A60BB684FF0DD
:1048500000021A607B684FF000021A603B684FF05C
:1048600000021A6062E040F62843C2F200031B888F
:1048700007EE103AF8EE477AFB68C3ED007A40F68F
:104880003043C2F200031A687B681A6040F6344372
:10489000C2F200031A683B681A6040F62C43C2F269
:1048A00000031A68BB681A607B6893ED007AF3EE28
:1048B0000E7AB4EEE77AF1EE10FA06DD7B684FF07F
:1048C0000002C4F2F0121A600FE07B6893ED007AE8
:1048D000FBEE0E7AB4EEE77AF1EE10FA05D57B68BE
:1048E0004FF00002CCF2F0121A603B6893ED007AB0
:1048F000F3EE0E7AB4EEE77AF1EE10FA06DD3B68DD
:104900004FF00002C4F2F0121A600FE03B6893ED22
:10491000007AFBEE0E7AB4EEE77AF1EE10FA05D5E6
:104920003B684FF00002CCF2F0121A6007F110075A
:10493000BD4680BDAFF300807B14AE47E17A843F73
:104940007B14AE47E17A84BF0000C8420000B44245
:1049500080B485B000AFF860B9607A603B60FA68F7
:10496000BB68D31AB9693A688A1A02FB03F27968FC
:10497000BB68CB1A92FBF3F23B68D318184607F1D9
:104980001407BD4680BC704780B588B000AFF860A2
:10499000B9607A60BB684FF000021A70BB684FF0D4
:1049A00000025A704FF000029A70BB684FF000028C
:1049B000C3F80320BB684FF00002C3F80720BB68B0
:1049C0004FF00002C3F80B20BB684FF00002DA730F
:1049D0004FF000021A744FF000025A744FF00002B8
:1049E0009A74FB681B78FB61FB6803F101031B7879
:1049F0004FEA0322FB6803F102031B7813434FEADB
:104A000003434FEA1343FA695340FB614FF003033A
:104A1000BB6125E0BB69FA68D3181B784FEA0362D3
:104A2000BB6903F10103F968CB181B784FEA034314
:104A30001A43BB6903F10203F968CB181B784FEAEC
:104A400003231A43BB6903F10303F968CB181B78EE
:104A50001343FA695340FB61BB6903F10403BB6173
:104A6000BB690D2BD6DDFB6803F10F031B784FEA02
:104A70000362FB6803F110031B784FEA03431A43F8
:104A8000FB6803F111031B784FEA03231A43FB6809
:104A900003F112031B7813431A46BB68C3F80F20B7
:104AA000BB68D3F80F20FB699A4240F00381FB6892
:104AB0001B78002B6DD040F65043C2F200031B68F8
:104AC000002B07D1FB681B781A4640F65043C2F210
:104AD00000031A6040F65443C2F200031B687B6176
:104AE0001EE040F65443C2F200031A6840F65443F5
:104AF000C2F2000319687B69CB1A03F10103F9685C
:104B0000CB1819787B68995440F65443C2F20003DD
:104B10001B6803F1010240F65443C2F200031A601D
:104B20007B6903F10E0240F65443C2F200031B6896
:104B30009A42D6DCFB681B780E2B20D840F65043F7
:104B4000C2F200031B68DAB27B6883F82A2040F6C1
:104B50005443C2F200034FF000021A6040F6504383
:104B6000C2F200034FF000021A60F8684FF0000133
:104B70004FF0040215F09EFE4FF00103AAE0F86822
:104B80004FF000014FF0040215F094FE4FF00203C5
:104B9000A0E0FB681A78BB681A70FB6803F1010398
:104BA0001B784FEA03239AB2FB6803F102031B78D8
:104BB00013439BB29AB2BB68A3F80120FB6803F1D0
:104BC00003031B784FEA0362FB6803F104031B78BD
:104BD0004FEA03431A43FB6803F105031B784FEACE
:104BE00003231A43FB6803F106031B781A4340F6BC
:104BF000C473C2F200031A6040F6C473C2F2000329
:104C00001A68BB68C3F80320FB6803F107031B782D
:104C10004FEA0362FB6803F108031B784FEA034382
:104C20001A43FB6803F109031B784FEA03231A4375
:104C3000FB6803F10A031B781A4340F6C473C2F2FF
:104C400000031A6040F6C473C2F200031A68BB681E
:104C5000C3F80720FB6803F10B031B784FEA0362DC
:104C6000FB6803F10C031B784FEA03431A43FB680C
:104C700003F10D031B784FEA03231A43FB6803F18A
:104C80000E031B781A4340F6C473C2F200031A6085
:104C900040F6C473C2F200031A68BB68C3F80B2065
:104CA000F8684FF000014FF0040215F003FE4FF0DA
:104CB00000030FE040F65443C2F200034FF000023D
:104CC0001A60F8684FF000014FF0040215F0F2FD91
:104CD0004FF0FF33184607F12007BD4680BD00BFE7
:104CE00080B586B000AFF860B9607A603B60FB6861
:104CF00093ED007ABB68D3ED007A77EE677A17EE12
:104D0000900A14F0C1FE02460B461046194646A30F
:104D1000D3E9002314F00CFF02460B461046194657
:104D20004FF000024FF40043C4F2660315F02AF876
:104D300002460B461046194615F0BCF903463B6186
:104D40007B6803F1FF334FEA83037A6AD31893ED4C
:104D5000007A7B684FEA83033A6AD318D3ED006A7E
:104D6000D7ED047A66EEA77A77EE277ABB6AC3EDB1
:104D7000007A7B6803F1FF337B612EE07B694FEAA9
:104D800083037A6AD3187A694FEA8202396A8A18E9
:104D900092ED007AD7ED047A27EE277A7A694FEA06
:104DA000820239688A18D2ED006ABA6AD2ED007AB6
:104DB00066EEA77A37EE677A7A6902F1FF324FEA38
:104DC0008202796A8A18D2ED007A77EE277AC3EDEB
:104DD000007A7B6903F1FF337B617B69002BCDDCBB
:104DE0003B6A93ED007AD7ED047A27EE277A3B6889
:104DF000D3ED006ABB6AD3ED007A66EEA77A77EE50
:104E0000677A7B6AC3ED007ABB6A93ED007AF1EEB4
:104E1000007AC7EE277ABB6AC3ED007A07F118075C
:104E2000BD4680BDAFF30080182D4454FB210940DE
:104E3000B0B584B000AFF860B9607A603B60FB68E1
:104E400093ED007ABB68D3ED007A77EE677A17EEC0
:104E5000900A14F019FE02460B461046194616A396
:104E6000D3E9002314F064FE02460B4610461946AF
:104E70004FF000024FF40043C4F2860314F082FFA7
:104E800002460B4614461D467B681B68184614F004
:104E9000FBFD02460B462046294614F049FE024619
:104EA0000B461046194615F005F902463B681A6094
:104EB00007F11007BD46B0BD182D4454FB21094031
:104EC000B0B586B000AFF860B9607A603B604FF073
:104ED0000003C4F2C8237B613B6893ED007AF1EED6
:104EE000047AB4EEE77AF1EE10FA5CDDFB6893ED3C
:104EF000007ABB68D3ED007A37EE277A7B68D3ED72
:104F0000007A37EE677A3B68D3ED007A77EE277A3E
:104F1000BB6AC3ED007ABB6A03F10403FA6892ED41
:104F2000007ABA68D2ED007A37EE677A7A68D2ED05
:104F3000007A37EE277A3A68D2ED007A77EE277A50
:104F4000C3ED007ABB6A03F10803BA6892ED007AF8
:104F5000FA68D2ED007A37EE677A7A68D2ED007A95
:104F600037EE277A3A68D2ED007A77EE277AC3EDEA
:104F7000007ABB6A03F10C03FA68D2ED007AB1EE55
:104F8000677ABA68D2ED007A37EE677A7A68D2ED3E
:104F9000007A37EE677A3A68D2ED007A77EE277AB0
:104FA000C3ED007A15E03B681A68BB6A1A60BB6AF9
:104FB00003F104033A6812681A60BB6A03F108033C
:104FC0003A6812681A60BB6A03F10C033A68126807
:104FD0001A60BB6A93ED007ABB6A03F10403D3ED58
:104FE000007A37EE277ABB6A03F10803D3ED007A23
:104FF00037EE277ABB6A03F10C03D3ED007A77EE24
:10500000277A17EE900A14F03FFD04460D46FB6A1E
:105010001B68184614F038FD02460B461046194628
:1050200011F0CCF802460B462046294614F080FDCC
:1050300002460B4614461D463B6B1B68184614F08F
:1050400023FD02460B461046194611F0B7F80246FA
:105050000B462046294614F06BFD02460B461046CF
:10506000194615F027F8024640F65843C2F20003ED
:105070001A60BB6A93ED007AD7ED057AB4EEE77A51
:10508000F1EE10FA02DDBB6A7A691A60BB6A03F1BD
:10509000040393ED007AD7ED057AB4EEE77AF1EEEA
:1050A00010FA04DDBB6A03F104037A691A60BB6A73
:1050B00003F1080393ED007AD7ED057AB4EEE77AB1
:1050C000F1EE10FA04DDBB6A03F108037A691A6095
:1050D000BB6A03F10C0393ED007AD7ED057AB4EEC9
:1050E000E77AF1EE10FA04DDBB6A03F10C037A698A
:1050F0001A6040F65843C2F2000393ED007ADFEDE8
:105100004A7AB4EEE77AF1EE10FA3CD5BB6AD3EDF9
:10511000007AF5EEC07AF1EE10FA03D5BB6A4FF0D3
:1051200000021A60BB6A03F10403D3ED007AF5EEC6
:10513000C07AF1EE10FA05D5BB6A03F104034FF013
:1051400000021A60BB6A03F10803D3ED007AF5EEA2
:10515000C07AF1EE10FA05D5BB6A03F108034FF0EF
:1051600000021A60BB6A03F10C03D3ED007AF5EE7E
:10517000C07AF1EE10FA52D5BB6A03F10C034FF07E
:1051800000021A604BE0BB6A93ED007AF2EE0E7AF1
:10519000B4EEE77AF1EE10FA05D5BB6A4FF00002E3
:1051A000C4F270121A60BB6A03F1040393ED007A33
:1051B000F2EE0E7AB4EEE77AF1EE10FA07D5BB6A9A
:1051C00003F104034FF00002C4F270121A60BB6ACC
:1051D00003F1080393ED007AF2EE0E7AB4EEE77A6B
:1051E000F1EE10FA07D5BB6A03F108034FF0000295
:1051F000C4F270121A60BB6A03F10C0393ED007ADB
:10520000F2EE0E7AB4EEE77AF1EE10FA07D5BB6A49
:1052100003F10C034FF00002C4F270121A6007F1A0
:105220001807BD46B0BD00BF00007042FEE7DFF8C2
:10523000700600B581B0804701B000BDFEE7DFF821
:10524000640600B581B0804701B000BDFEE7DFF81D
:10525000580600B581B0804701B000BDFEE7DFF819
:105260004C0600B581B0804701B000BDFEE7DFF815
:10527000400600B581B0804701B000BDFEE7DFF811
:10528000340600B581B0804701B000BDFEE7DFF80D
:10529000280600B581B0804701B000BDFEE7DFF809
:1052A0001C0600B581B0804701B000BDFEE7DFF805
:1052B000100600B581B0804701B000BDFEE7DFF801
:1052C000040600B581B0804701B000BDFEE7DFF8FD
:1052D000F80500B581B0804701B000BDFEE7DFF8FA
:1052E000EC0500B581B0804701B000BDFEE7DFF8F6
:1052F000E00500B581B0804701B000BDFEE7DFF8F2
:10530000D40500B581B0804701B000BDFEE7DFF8ED
:10531000C80500B581B0804701B000BDFEE7DFF8E9
:10532000BC0500B581B0804701B000BDFEE7DFF8E5
:10533000B00500B581B0804701B000BDFEE7DFF8E1
:10534000A40500B581B0804701B000BDFEE7DFF8DD
:10535000980500B581B0804701B000BDFEE7DFF8D9
:105360008C0500B581B0804701B000BDFEE7DFF8D5
:10537000800500B581B0804701B000BDFEE7DFF8D1
:10538000740500B581B0804701B000BDFEE7DFF8CD
:10539000680500B581B0804701B000BDFEE7DFF8C9
:1053A0005C0500B581B0804701B000BDFEE7DFF8C5
:1053B000500500B581B0804701B000BDFEE7DFF8C1
:1053C000440500B581B0804701B000BDFEE7DFF8BD
:1053D000380500B581B0804701B000BDFEE7DFF8B9
:1053E0002C0500B581B0804701B000BDFEE7DFF8B5
:1053F000200500B581B0804701B000BDFEE7DFF8B1
:10540000140500B581B0804701B000BDFEE7DFF8AC
:10541000080500B581B0804701B000BDFEE7DFF8A8
:10542000FC0400B581B0804701B000BDFEE7DFF8A5
:10543000F00400B581B0804701B000BDFEE7DFF8A1
:10544000E40400B581B0804701B000BDFEE7DFF89D
:10545000D80400B581B0804701B000BDFEE7DFF899
:10546000CC0400B581B0804701B000BDFEE7DFF895
:10547000C00400B581B0804701B000BDFEE7DFF891
:10548000B40400B581B0804701B000BDFEE7DFF88D
:10549000A80400B581B0804701B000BDFEE7DFF889
:1054A0009C0400B581B0804701B000BDFEE7DFF885
:1054B000900400B581B0804701B000BDFEE7DFF881
:1054C000840400B581B0804701B000BDFEE7DFF87D
:1054D000780400B581B0804701B000BDFEE7DFF879
:1054E0006C0400B581B0804701B000BDFEE7DFF875
:1054F000600400B581B0804701B000BDFEE7DFF871
:10550000540400B581B0804701B000BDFEE7DFF86C
:10551000480400B581B0804701B000BDFEE7DFF868
:105520003C0400B581B0804701B000BDFEE7DFF864
:10553000300400B581B0804701B000BDFEE7DFF860
:10554000240400B581B0804701B000BDFEE7DFF85C
:10555000180400B581B0804701B000BDFEE7DFF858
:105560000C0400B581B0804701B000BDFEE7DFF854
:10557000000400B581B0804701B000BDFEE7FD48E2
:1055800000B581B0804701B000BDFEE7FA4800B524
:1055900081B0804701B000BDFEE7F84800B581B09A
:1055A000804701B000BDFEE7F54800B581B08047F7
:1055B00001B000BDFEE7F34800B581B0804701B0FF
:1055C00000BDFEE7F04800B581B0804701B000BDE6
:1055D000FEE7EE4800B581B0804701B000BDFEE7B0
:1055E000EB4800B581B0804701B000BDFEE7E94857
:1055F00000B581B0804701B000BDFEE7E64800B5C8
:1056000081B0804701B000BDFEE7E44800B581B03D
:10561000804701B000BDFEE7E14800B581B080479A
:1056200001B000BDFEE7DF4800B581B0804701B0A2
:1056300000BDFEE7DC4800B581B0804701B000BD89
:10564000FEE7DA4800B581B0804701B000BDFEE753
:10565000D74800B581B0804701B000BDFEE7D5480E
:1056600000B581B0804701B000BDFEE7D24800B56B
:1056700081B0804701B000BDFEE7D04800B581B0E1
:10568000804701B000BDFEE7CD4800B581B080473E
:1056900001B000BDFEE7CB4800B581B0804701B046
:1056A00000BDFEE7C84800B581B0804701B000BD2D
:1056B000FEE7C64800B581B0804701B000BDFEE7F7
:1056C000C34800B581B0804701B000BDFEE7C148C6
:1056D00000B581B0804701B000BDFEE7BE4800B50F
:1056E00081B0804701B000BDFEE7BC4800B581B085
:1056F000804701B000BDFEE7B94800B581B08047E2
:1057000001B000BDFEE7B74800B581B0804701B0E9
:1057100000BDFEE7B44800B581B0804701B000BDD0
:10572000FEE7B24800B581B0804701B000BDFEE79A
:10573000AF4800B581B0804701B000BDFEE7AD487D
:1057400000B581B0804701B000BDFEE7AA4800B5B2
:1057500081B0804701B000BDFEE7A84800B581B028
:10576000804701B000BDFEE7A54800B581B0804785
:1057700001B000BDFEE7A34800B581B0804701B08D
:1057800000BDFEE7A04800B581B0804701B000BD74
:10579000FEE79E4800B581B0804701B000BDFEE73E
:1057A0009B4800B581B0804701B000BDFEE7994835
:1057B00000B581B0804701B000BDFEE7964800B556
:1057C00081B0804701B000BDFEE7944800B581B0CC
:1057D000804701B000BDFEE7914800B581B0804729
:1057E00001B000BDFEE78F4800B581B0804701B031
:1057F00000BDFEE78C4800B581B0804701B000BD18
:10580000FEE78A4800B581B0804701B000BDFEE7E1
:10581000874800B581B0804701B000BDFEE78548EC
:1058200000B581B0804701B000BDFEE7824800B5F9
:1058300081B0804701B000BDFEE7804800B581B06F
:10584000804701B000BDFEE77D4800B581B08047CC
:1058500001B000BDFEE77B4800B581B0804701B0D4
:1058600000BDFEE7784800B581B0804701B000BDBB
:10587000FEE7764800B581B0804701B000BDFEE785
:10588000734800B581B0804701B000BDFEE77148A4
:1058900000B581B0804701B000BD4FF001007047F6
:1058A0002D5200083D5200084D5200085D5200087C
:1058B0006D5200087D5200088D5200089D5200086C
:1058C000B9E20008BD520008CD520008DD520008C0
:1058D000ED520008FD520008B51F00081D530008D6
:1058E0002D5300086D3D00084D5300085D5300081E
:1058F0006D5300087D5300088D5300089D53000828
:10590000AD530008BD530008CD530008DD53000817
:10591000ED530008FD5300080D5400081D54000805
:105920002D5400083D5400084D5400085D540008F3
:105930006D5400087D5400088D5400089D540008E3
:10594000AD540008BD540008CD540008DD540008D3
:10595000ED540008FD5400080D5500081D550008C1
:105960002D5500083D5500084D5500085D550008AF
:105970006D5500087D5500088B55000899550008A5
:10598000A7550008696100083D0800086173000818
:10599000D1720008ED550008FB55000809560008B3
:1059A00017560008255600083356000841560008CF
:1059B0004F5600085D5600086B56000879560008DF
:1059C0008756000895560008A3560008B1560008EF
:1059D000BF560008CD560008DB560008E9560008FF
:1059E000F75600080557000813570008215700080C
:1059F0002F5700083D5700084B570008595700081B
:105A0000F507000875570008794400086140000850
:105A10009F570008AD570008BB570008C95700083A
:105A2000D7570008E5570008F3570008AD070008EE
:105A30000F5800081D5800082B5800083958000856
:105A4000475800085558000863580008B99C0008DA
:105A50007F5800088D58000880B582B000AF4FF421
:105A60006D43CEF200034FF46D42CEF20002D2F845
:105A7000882042F47002C3F888204FF46D43CEF2C0
:105A800000034FF46D42CEF20002526922F0080288
:105A90005A614FF40043C5F200034FF40042C5F2CF
:105AA0000002526822F001025A604FF48053C5F69A
:105AB000000303F5805303F114031B687B607B68CC
:105AC00023F00F037B607B6843F003037B604FF49C
:105AD0008053C5F600037A6803F5805303F114037D
